{"contracts/X402FeeSplitter.sol":{"X402FeeSplitter":{"abi":[{"inputs":[{"internalType":"address","name":"_treasury","type":"address"},{"internalType":"uint256","name":"_defaultFeeBps","type":"uint256"},{"internalType":"address","name":"_initialFacilitator","type":"address"}],"stateMutability":"nonpayable","type":"constructor"},{"inputs":[],"name":"AmountExceedsLimit","type":"error"},{"inputs":[],"name":"EnforcedPause","type":"error"},{"inputs":[],"name":"ExpectedPause","type":"error"},{"inputs":[],"name":"FeeTooHigh","type":"error"},{"inputs":[],"name":"InsufficientBalance","type":"error"},{"inputs":[],"name":"InvalidAmount","type":"error"},{"inputs":[],"name":"InvalidRecipient","type":"error"},{"inputs":[],"name":"InvalidToken","type":"error"},{"inputs":[],"name":"InvalidTreasury","type":"error"},{"inputs":[],"name":"LengthMismatch","type":"error"},{"inputs":[],"name":"NotAuthorizedFacilitator","type":"error"},{"inputs":[{"internalType":"address","name":"owner","type":"address"}],"name":"OwnableInvalidOwner","type":"error"},{"inputs":[{"internalType":"address","name":"account","type":"address"}],"name":"OwnableUnauthorizedAccount","type":"error"},{"inputs":[],"name":"ReentrancyGuardReentrantCall","type":"error"},{"inputs":[{"internalType":"address","name":"token","type":"address"}],"name":"SafeERC20FailedOperation","type":"error"},{"inputs":[],"name":"TokenNotWhitelisted","type":"error"},{"anonymous":false,"inputs":[{"indexed":false,"internalType":"uint256","name":"oldFeeBps","type":"uint256"},{"indexed":false,"internalType":"uint256","name":"newFeeBps","type":"uint256"}],"name":"DefaultFeeUpdated","type":"event"},{"anonymous":false,"inputs":[{"indexed":true,"internalType":"address","name":"token","type":"address"},{"indexed":true,"internalType":"address","name":"to","type":"address"},{"indexed":false,"internalType":"uint256","name":"amount","type":"uint256"}],"name":"EmergencyWithdraw","type":"event"},{"anonymous":false,"inputs":[{"indexed":true,"internalType":"address","name":"facilitator","type":"address"},{"indexed":false,"internalType":"bool","name":"authorized","type":"bool"}],"name":"FacilitatorUpdated","type":"event"},{"anonymous":false,"inputs":[{"indexed":false,"internalType":"uint256","name":"oldMax","type":"uint256"},{"indexed":false,"internalType":"uint256","name":"newMax","type":"uint256"}],"name":"MaxSettlementUpdated","type":"event"},{"anonymous":false,"inputs":[{"indexed":true,"internalType":"address","name":"previousOwner","type":"address"},{"indexed":true,"internalType":"address","name":"newOwner","type":"address"}],"name":"OwnershipTransferStarted","type":"event"},{"anonymous":false,"inputs":[{"indexed":true,"internalType":"address","name":"previousOwner","type":"address"},{"indexed":true,"internalType":"address","name":"newOwner","type":"address"}],"name":"OwnershipTransferred","type":"event"},{"anonymous":false,"inputs":[{"indexed":false,"internalType":"address","name":"account","type":"address"}],"name":"Paused","type":"event"},{"anonymous":false,"inputs":[{"indexed":true,"internalType":"address","name":"token","type":"address"},{"indexed":true,"internalType":"address","name":"payer","type":"address"},{"indexed":true,"internalType":"address","name":"recipient","type":"address"},{"indexed":false,"internalType":"uint256","name":"grossAmount","type":"uint256"},{"indexed":false,"internalType":"uint256","name":"netAmount","type":"uint256"},{"indexed":false,"internalType":"uint256","name":"fee","type":"uint256"},{"indexed":false,"internalType":"address","name":"facilitator","type":"address"}],"name":"PaymentSplit","type":"event"},{"anonymous":false,"inputs":[{"indexed":true,"internalType":"address","name":"token","type":"address"},{"indexed":false,"internalType":"uint256","name":"oldFeeBps","type":"uint256"},{"indexed":false,"internalType":"uint256","name":"newFeeBps","type":"uint256"}],"name":"TokenFeeUpdated","type":"event"},{"anonymous":false,"inputs":[{"indexed":true,"internalType":"address","name":"token","type":"address"},{"indexed":false,"internalType":"bool","name":"whitelisted","type":"bool"}],"name":"TokenWhitelistUpdated","type":"event"},{"anonymous":false,"inputs":[{"indexed":true,"internalType":"address","name":"oldTreasury","type":"address"},{"indexed":true,"internalType":"address","name":"newTreasury","type":"address"}],"name":"TreasuryUpdated","type":"event"},{"anonymous":false,"inputs":[{"indexed":false,"internalType":"address","name":"account","type":"address"}],"name":"Unpaused","type":"event"},{"anonymous":false,"inputs":[{"indexed":false,"internalType":"bool","name":"enabled","type":"bool"}],"name":"WhitelistModeUpdated","type":"event"},{"inputs":[],"name":"MAX_FEE_BPS","outputs":[{"internalType":"uint256","name":"","type":"uint256"}],"stateMutability":"view","type":"function"},{"inputs":[],"name":"MIN_AMOUNT","outputs":[{"internalType":"uint256","name":"","type":"uint256"}],"stateMutability":"view","type":"function"},{"inputs":[],"name":"acceptOwnership","outputs":[],"stateMutability":"nonpayable","type":"function"},{"inputs":[{"internalType":"address","name":"","type":"address"}],"name":"authorizedFacilitators","outputs":[{"internalType":"bool","name":"","type":"bool"}],"stateMutability":"view","type":"function"},{"inputs":[{"internalType":"address","name":"token","type":"address"},{"internalType":"uint256","name":"amount","type":"uint256"}],"name":"calculateSplit","outputs":[{"internalType":"uint256","name":"netAmount","type":"uint256"},{"internalType":"uint256","name":"feeAmount","type":"uint256"}],"stateMutability":"view","type":"function"},{"inputs":[{"internalType":"address","name":"","type":"address"}],"name":"collectedFees","outputs":[{"internalType":"uint256","name":"","type":"uint256"}],"stateMutability":"view","type":"function"},{"inputs":[],"name":"defaultFeeBps","outputs":[{"internalType":"uint256","name":"","type":"uint256"}],"stateMutability":"view","type":"function"},{"inputs":[{"internalType":"address","name":"token","type":"address"},{"internalType":"uint256","name":"amount","type":"uint256"}],"name":"emergencyWithdraw","outputs":[],"stateMutability":"nonpayable","type":"function"},{"inputs":[{"internalType":"address","name":"token","type":"address"},{"internalType":"address","name":"to","type":"address"},{"internalType":"uint256","name":"amount","type":"uint256"}],"name":"emergencyWithdrawTo","outputs":[],"stateMutability":"nonpayable","type":"function"},{"inputs":[],"name":"facilitatorCount","outputs":[{"internalType":"uint256","name":"","type":"uint256"}],"stateMutability":"view","type":"function"},{"inputs":[],"name":"getStats","outputs":[{"internalType":"uint256","name":"settlements","type":"uint256"},{"internalType":"address","name":"treasuryAddr","type":"address"},{"internalType":"uint256","name":"defaultFee","type":"uint256"},{"internalType":"uint256","name":"numFacilitators","type":"uint256"},{"internalType":"bool","name":"isPaused","type":"bool"},{"internalType":"bool","name":"isWhitelistMode","type":"bool"}],"stateMutability":"view","type":"function"},{"inputs":[{"internalType":"address","name":"token","type":"address"}],"name":"getTokenFee","outputs":[{"internalType":"uint256","name":"","type":"uint256"}],"stateMutability":"view","type":"function"},{"inputs":[{"internalType":"address","name":"token","type":"address"}],"name":"getTokenStats","outputs":[{"internalType":"uint256","name":"feeBps","type":"uint256"},{"internalType":"bool","name":"configured","type":"bool"},{"internalType":"bool","name":"whitelisted","type":"bool"},{"internalType":"uint256","name":"feesCollected","type":"uint256"},{"internalType":"uint256","name":"volumeSettled","type":"uint256"}],"stateMutability":"view","type":"function"},{"inputs":[{"internalType":"address","name":"facilitator","type":"address"}],"name":"isFacilitator","outputs":[{"internalType":"bool","name":"","type":"bool"}],"stateMutability":"view","type":"function"},{"inputs":[],"name":"maxSettlementAmount","outputs":[{"internalType":"uint256","name":"","type":"uint256"}],"stateMutability":"view","type":"function"},{"inputs":[],"name":"owner","outputs":[{"internalType":"address","name":"","type":"address"}],"stateMutability":"view","type":"function"},{"inputs":[],"name":"pause","outputs":[],"stateMutability":"nonpayable","type":"function"},{"inputs":[],"name":"paused","outputs":[{"internalType":"bool","name":"","type":"bool"}],"stateMutability":"view","type":"function"},{"inputs":[],"name":"pendingOwner","outputs":[{"internalType":"address","name":"","type":"address"}],"stateMutability":"view","type":"function"},{"inputs":[],"name":"renounceOwnership","outputs":[],"stateMutability":"nonpayable","type":"function"},{"inputs":[{"internalType":"uint256","name":"feeBps","type":"uint256"}],"name":"setDefaultFee","outputs":[],"stateMutability":"nonpayable","type":"function"},{"inputs":[{"internalType":"address","name":"facilitator","type":"address"},{"internalType":"bool","name":"authorized","type":"bool"}],"name":"setFacilitator","outputs":[],"stateMutability":"nonpayable","type":"function"},{"inputs":[{"internalType":"uint256","name":"_maxAmount","type":"uint256"}],"name":"setMaxSettlement","outputs":[],"stateMutability":"nonpayable","type":"function"},{"inputs":[{"internalType":"address","name":"token","type":"address"},{"internalType":"uint256","name":"feeBps","type":"uint256"}],"name":"setTokenFee","outputs":[],"stateMutability":"nonpayable","type":"function"},{"inputs":[{"internalType":"address[]","name":"tokens","type":"address[]"},{"internalType":"uint256[]","name":"feesBps","type":"uint256[]"}],"name":"setTokenFeesBatch","outputs":[],"stateMutability":"nonpayable","type":"function"},{"inputs":[{"internalType":"address","name":"token","type":"address"},{"internalType":"bool","name":"whitelisted","type":"bool"}],"name":"setTokenWhitelisted","outputs":[],"stateMutability":"nonpayable","type":"function"},{"inputs":[{"internalType":"address[]","name":"tokens","type":"address[]"},{"internalType":"bool","name":"whitelisted","type":"bool"}],"name":"setTokensWhitelistedBatch","outputs":[],"stateMutability":"nonpayable","type":"function"},{"inputs":[{"internalType":"address","name":"_treasury","type":"address"}],"name":"setTreasury","outputs":[],"stateMutability":"nonpayable","type":"function"},{"inputs":[{"internalType":"bool","name":"enabled","type":"bool"}],"name":"setWhitelistMode","outputs":[],"stateMutability":"nonpayable","type":"function"},{"inputs":[{"internalType":"address","name":"token","type":"address"},{"internalType":"address","name":"payer","type":"address"},{"internalType":"address","name":"recipient","type":"address"},{"internalType":"uint256","name":"amount","type":"uint256"}],"name":"splitPayment","outputs":[{"internalType":"uint256","name":"netAmount","type":"uint256"},{"internalType":"uint256","name":"feeAmount","type":"uint256"}],"stateMutability":"nonpayable","type":"function"},{"inputs":[{"internalType":"address","name":"","type":"address"}],"name":"tokenConfigured","outputs":[{"internalType":"bool","name":"","type":"bool"}],"stateMutability":"view","type":"function"},{"inputs":[{"internalType":"address","name":"","type":"address"}],"name":"tokenFeeBps","outputs":[{"internalType":"uint256","name":"","type":"uint256"}],"stateMutability":"view","type":"function"},{"inputs":[{"internalType":"address","name":"","type":"address"}],"name":"tokenWhitelisted","outputs":[{"internalType":"bool","name":"","type":"bool"}],"stateMutability":"view","type":"function"},{"inputs":[],"name":"totalSettlements","outputs":[{"internalType":"uint256","name":"","type":"uint256"}],"stateMutability":"view","type":"function"},{"inputs":[{"internalType":"address","name":"","type":"address"}],"name":"totalVolumeByToken","outputs":[{"internalType":"uint256","name":"","type":"uint256"}],"stateMutability":"view","type":"function"},{"inputs":[{"internalType":"address","name":"newOwner","type":"address"}],"name":"transferOwnership","outputs":[],"stateMutability":"nonpayable","type":"function"},{"inputs":[],"name":"treasury","outputs":[{"internalType":"address","name":"","type":"address"}],"stateMutability":"view","type":"function"},{"inputs":[],"name":"unpause","outputs":[],"stateMutability":"nonpayable","type":"function"},{"inputs":[],"name":"whitelistMode","outputs":[{"internalType":"bool","name":"","type":"bool"}],"stateMutability":"view","type":"function"}],"evm":{"bytecode":{"linkReferences":{},"object":"60806040523480156200001157600080fd5b5060405162001b9e38038062001b9e8339810160408190526200003491620001d9565b33806200005b57604051631e4fbdf760e01b81526000600482015260240160405180910390fd5b62000066816200014e565b5060016002556001600160a01b03831662000094576040516302979eb960e31b815260040160405180910390fd5b6103e8821115620000b85760405163cd4e616760e01b815260040160405180910390fd5b600580546001600160a01b0319166001600160a01b0385811691909117909155600883905581161562000145576001600160a01b038116600081815260096020908152604091829020805460ff19166001908117909155600a81905591519182527f23b563b53629727de17c5cec4b391a63440584fdaf0d888a95bbc671da2c62e1910160405180910390a25b5050506200021a565b600180546001600160a01b031916905562000169816200016c565b50565b600080546001600160a01b038381166001600160a01b0319831681178455604051919092169283917f8be0079c531659141344cd1fd0a4f28419497f9722a3daafe3b4186f6b6457e09190a35050565b80516001600160a01b0381168114620001d457600080fd5b919050565b600080600060608486031215620001ef57600080fd5b620001fa84620001bc565b9250602084015191506200021160408501620001bc565b90509250925092565b611974806200022a6000396000f3fe608060405234801561001057600080fd5b506004361061023d5760003560e01c80638da5cb5b1161013b578063ca88d5c5116100b8578063f0f442601161007c578063f0f442601461055c578063f2f7c06a1461056f578063f2fde38b14610582578063f3abba1014610595578063ff8507e8146105a857600080fd5b8063ca88d5c5146104e5578063d55be8c614610527578063ddbcb5fa14610530578063df15f1ac14610538578063e30c39781461054b57600080fd5b8063bcae25a4116100ff578063bcae25a414610452578063bfd9182f1461045b578063c57beae41461046e578063c59d484714610491578063c93a6c84146104d257600080fd5b80638da5cb5b146103e05780638f57e97d146103f157806394cc6d721461040457806395ccea671461042c578063b1014cbb1461043f57600080fd5b806361d027b3116101c957806379f6351b1161018d57806379f6351b1461038357806380fc2e15146103a35780638456cb59146103c6578063888a42d3146103ce57806388dae6a8146103d757600080fd5b806361d027b314610332578063704451261461035d57806370c757ec14610366578063715018a61461037357806379ba50971461037b57600080fd5b80633a9c5712116102105780633a9c5712146102e45780633f4ba83a146102f9578063425bc1e9146103015780635c975abb146103145780635e3b973e1461031f57600080fd5b80631cead9a714610242578063252154fa14610275578063334605401461028857806338caed9f146102c4575b600080fd5b61026261025036600461160e565b600b6020526000908152604090205481565b6040519081526020015b60405180910390f35b61026261028336600461160e565b6105cb565b6102b461029636600461160e565b6001600160a01b031660009081526009602052604090205460ff1690565b604051901515815260200161026c565b6102626102d236600461160e565b600d6020526000908152604090205481565b6102f76102f2366004611640565b610610565b005b6102f7610677565b6102f761030f366004611673565b610689565b60035460ff166102b4565b6102f761032d3660046116da565b6106d8565b600554610345906001600160a01b031681565b6040516001600160a01b03909116815260200161026c565b61026260045481565b600e546102b49060ff1681565b6102f76107c2565b6102f76107d4565b61026261039136600461160e565b60066020526000908152604090205481565b6102b46103b136600461160e565b60076020526000908152604090205460ff1681565b6102f761081d565b610262600a5481565b610262600c5481565b6000546001600160a01b0316610345565b6102f76103ff366004611640565b61082d565b61041761041236600461172e565b61092f565b6040805192835260208301919091520161026c565b6102f761043a366004611779565b610c44565b6102f761044d366004611779565b610d32565b61026260085481565b6102f76104693660046117a3565b610dc7565b6102b461047c36600461160e565b60096020526000908152604090205460ff1681565b610499610e15565b604080519687526001600160a01b03909516602087015293850192909252606084015215156080830152151560a082015260c00161026c565b6102f76104e03660046117a3565b610e63565b6104f86104f336600461160e565b610ecc565b60405161026c959493929190948552921515602085015290151560408401526060830152608082015260a00190565b6102626103e881565b610262600181565b610417610546366004611779565b610f2e565b6001546001600160a01b0316610345565b6102f761056a36600461160e565b610f6b565b6102f761057d3660046117bc565b610fec565b6102f761059036600461160e565b611103565b6102f76105a33660046117f8565b611174565b6102b46105b636600461160e565b600f6020526000908152604090205460ff1681565b6001600160a01b03811660009081526007602052604081205460ff161561060857506001600160a01b031660009081526006602052604090205490565b505060085490565b610618611396565b6001600160a01b0382166000818152600f6020908152604091829020805460ff191685151590811790915591519182527f67821d5384bb02aab1ba91a477f89c9966cd30f475b02618bdc58712bca51275910160405180910390a25050565b61067f611396565b6106876113c3565b565b610691611396565b600e805460ff19168215159081179091556040519081527f2d096e0ce298196d706256be0f2a6ef71011a475a3224558a3a71386da284e659060200160405180910390a150565b6106e0611396565b60005b828110156107bc5781600f600086868581811061070257610702611864565b9050602002016020810190610717919061160e565b6001600160a01b031681526020810191909152604001600020805460ff191691151591909117905583838281811061075157610751611864565b9050602002016020810190610766919061160e565b6001600160a01b03167f67821d5384bb02aab1ba91a477f89c9966cd30f475b02618bdc58712bca51275836040516107a2911515815260200190565b60405180910390a2806107b481611890565b9150506106e3565b50505050565b6107ca611396565b6106876000611415565b60015433906001600160a01b031681146108115760405163118cdaa760e01b81526001600160a01b03821660048201526024015b60405180910390fd5b61081a81611415565b50565b610825611396565b61068761142e565b610835611396565b6001600160a01b03821661085c57604051634e46966960e11b815260040160405180910390fd5b6001600160a01b03821660009081526009602052604090205460ff168115158115150361088857505050565b6001600160a01b0383166000908152600960205260409020805460ff191683158015919091179091556108cf57600a80549060006108c583611890565b91905055506108e5565b600a80549060006108df836118a9565b91905055505b826001600160a01b03167f23b563b53629727de17c5cec4b391a63440584fdaf0d888a95bbc671da2c62e183604051610922911515815260200190565b60405180910390a2505050565b60008061093a61146b565b610942611493565b3360009081526009602052604090205460ff1661097257604051632ab2132160e01b815260040160405180910390fd5b6001600160a01b0386166109995760405163c1ab6dc160e01b815260040160405180910390fd5b6001600160a01b03841615806109b757506001600160a01b03841630145b156109d557604051634e46966960e11b815260040160405180910390fd5b60018310156109f75760405163162908e360e11b815260040160405180910390fd5b600e5460ff168015610a2257506001600160a01b0386166000908152600f602052604090205460ff16155b15610a40576040516307c241ad60e51b815260040160405180910390fd5b6000600454118015610a53575060045483115b15610a715760405163172bd6a160e31b815260040160405180910390fd5b6040516370a0823160e01b81523060048201526000906001600160a01b038816906370a0823190602401602060405180830381865afa158015610ab8573d6000803e3d6000fd5b505050506040513d601f19601f82011682018060405250810190610adc91906118c0565b905083811015610aff57604051631e9acf1760e31b815260040160405180910390fd5b6000610b0a886105cb565b9050612710610b1982876118d9565b610b2391906118f6565b9250610b2f8386611918565b9350610b456001600160a01b03891687866114b7565b8215610b9357600554610b65906001600160a01b038a81169116856114b7565b6001600160a01b0388166000908152600b602052604081208054859290610b8d90849061192b565b90915550505b600c8054906000610ba383611890565b90915550506001600160a01b0388166000908152600d602052604081208054879290610bd090849061192b565b909155505060408051868152602081018690529081018490523360608201526001600160a01b0380881691898216918b16907fb4774686571aea02ff343fa83c0e541c702f4ca498995ffbea473fea45f5a2529060800160405180910390a45050610c3b6001600255565b94509492505050565b610c4c611396565b6040516370a0823160e01b81523060048201526000906001600160a01b038416906370a0823190602401602060405180830381865afa158015610c93573d6000803e3d6000fd5b505050506040513d601f19601f82011682018060405250810190610cb791906118c0565b90506000818311610cc85782610cca565b815b600554909150610ce7906001600160a01b038681169116836114b7565b6005546040518281526001600160a01b03918216918616907ff24ef89f38eadc1bde50701ad6e4d6d11a2dc24f7cf834a486991f38833285049060200160405180910390a350505050565b610d3a611396565b6103e8811115610d5d5760405163cd4e616760e01b815260040160405180910390fd5b6001600160a01b03821660008181526006602090815260408083208054908690556007835292819020805460ff1916600117905580518381529182018590529192917f5fe83da06836532aa42f928fe690751e055c28dafb29fd9081edbb43c931e8cd9101610922565b610dcf611396565b600480549082905560408051828152602081018490527f99c63b310ed8bf13af0912b2a4334e6ad43b675fab58fb80238bb5de3477b0d791015b60405180910390a15050565b600080600080600080600c54600560009054906101000a90046001600160a01b0316600854600a54610e4960035460ff1690565b600e54949b939a509198509650945060ff90911692509050565b610e6b611396565b6103e8811115610e8e5760405163cd4e616760e01b815260040160405180910390fd5b600880549082905560408051828152602081018490527fac1f58cd233fc224bd53b979e04547b08f9e5da37a3fa94f2afa216dfba592309101610e09565b6000806000806000610edd866105cb565b6001600160a01b0396909616600090815260076020908152604080832054600f835281842054600b845282852054600d9094529190932054989960ff93841699939091169750909550909350915050565b6000806000610f3c856105cb565b9050612710610f4b82866118d9565b610f5591906118f6565b9150610f618285611918565b9250509250929050565b610f73611396565b6001600160a01b038116610f9a576040516302979eb960e31b815260040160405180910390fd5b600580546001600160a01b038381166001600160a01b0319831681179093556040519116919082907f4ab5be82436d353e61ca18726e984e561f5c1cc7c6d38b29d2553c790434705a90600090a35050565b610ff4611396565b6001600160a01b03821661101b57604051634e46966960e11b815260040160405180910390fd5b6040516370a0823160e01b81523060048201526000906001600160a01b038516906370a0823190602401602060405180830381865afa158015611062573d6000803e3d6000fd5b505050506040513d601f19601f8201168201806040525081019061108691906118c0565b905060008183116110975782611099565b815b90506110af6001600160a01b03861685836114b7565b836001600160a01b0316856001600160a01b03167ff24ef89f38eadc1bde50701ad6e4d6d11a2dc24f7cf834a486991f3883328504836040516110f491815260200190565b60405180910390a35050505050565b61110b611396565b600180546001600160a01b0383166001600160a01b0319909116811790915561113c6000546001600160a01b031690565b6001600160a01b03167f38d16b8cac22d99fc7c124b9cd0de2d3fa1faef420bfe791d8c362d765e2270060405160405180910390a350565b61117c611396565b82811461119f576040516001621398b960e31b0319815260040160405180910390fd5b60005b8381101561138f576103e88383838181106111bf576111bf611864565b9050602002013511156111e55760405163cd4e616760e01b815260040160405180910390fd5b6000600660008787858181106111fd576111fd611864565b9050602002016020810190611212919061160e565b6001600160a01b03166001600160a01b0316815260200190815260200160002054905083838381811061124757611247611864565b905060200201356006600088888681811061126457611264611864565b9050602002016020810190611279919061160e565b6001600160a01b03166001600160a01b03168152602001908152602001600020819055506001600760008888868181106112b5576112b5611864565b90506020020160208101906112ca919061160e565b6001600160a01b031681526020810191909152604001600020805460ff191691151591909117905585858381811061130457611304611864565b9050602002016020810190611319919061160e565b6001600160a01b03167f5fe83da06836532aa42f928fe690751e055c28dafb29fd9081edbb43c931e8cd8286868681811061135657611356611864565b90506020020135604051611374929190918252602082015260400190565b60405180910390a2508061138781611890565b9150506111a2565b5050505050565b6000546001600160a01b031633146106875760405163118cdaa760e01b8152336004820152602401610808565b6113cb61150e565b6003805460ff191690557f5db9ee0a495bf2e6ff9c91a7834c1ba4fdd244a5e8aa4e537bd38aeae4b073aa335b6040516001600160a01b03909116815260200160405180910390a1565b600180546001600160a01b031916905561081a81611531565b611436611493565b6003805460ff191660011790557f62e78cea01bee320cd4e420270b5ea74000d11b0c9f74754ebdbfc544b05a2586113f83390565b600280540361148d57604051633ee5aeb560e01b815260040160405180910390fd5b60028055565b60035460ff16156106875760405163d93c066560e01b815260040160405180910390fd5b604080516001600160a01b038416602482015260448082018490528251808303909101815260649091019091526020810180516001600160e01b031663a9059cbb60e01b179052611509908490611581565b505050565b60035460ff1661068757604051638dfc202b60e01b815260040160405180910390fd5b600080546001600160a01b038381166001600160a01b0319831681178455604051919092169283917f8be0079c531659141344cd1fd0a4f28419497f9722a3daafe3b4186f6b6457e09190a35050565b600080602060008451602086016000885af1806115a4576040513d6000823e3d81fd5b50506000513d915081156115bc5780600114156115c9565b6001600160a01b0384163b155b156107bc57604051635274afe760e01b81526001600160a01b0385166004820152602401610808565b80356001600160a01b038116811461160957600080fd5b919050565b60006020828403121561162057600080fd5b611629826115f2565b9392505050565b8035801515811461160957600080fd5b6000806040838503121561165357600080fd5b61165c836115f2565b915061166a60208401611630565b90509250929050565b60006020828403121561168557600080fd5b61162982611630565b60008083601f8401126116a057600080fd5b50813567ffffffffffffffff8111156116b857600080fd5b6020830191508360208260051b85010111156116d357600080fd5b9250929050565b6000806000604084860312156116ef57600080fd5b833567ffffffffffffffff81111561170657600080fd5b6117128682870161168e565b9094509250611725905060208501611630565b90509250925092565b6000806000806080858703121561174457600080fd5b61174d856115f2565b935061175b602086016115f2565b9250611769604086016115f2565b9396929550929360600135925050565b6000806040838503121561178c57600080fd5b611795836115f2565b946020939093013593505050565b6000602082840312156117b557600080fd5b5035919050565b6000806000606084860312156117d157600080fd5b6117da846115f2565b92506117e8602085016115f2565b9150604084013590509250925092565b6000806000806040858703121561180e57600080fd5b843567ffffffffffffffff8082111561182657600080fd5b6118328883890161168e565b9096509450602087013591508082111561184b57600080fd5b506118588782880161168e565b95989497509550505050565b634e487b7160e01b600052603260045260246000fd5b634e487b7160e01b600052601160045260246000fd5b6000600182016118a2576118a261187a565b5060010190565b6000816118b8576118b861187a565b506000190190565b6000602082840312156118d257600080fd5b5051919050565b80820281158282048414176118f0576118f061187a565b92915050565b60008261191357634e487b7160e01b600052601260045260246000fd5b500490565b818103818111156118f0576118f061187a565b808201808211156118f0576118f061187a56fea264697066735822122000dd5b311c5d0cf812e223f0b6c39588f8089e6697317c99dd47157784f5153764736f6c63430008140033","opcodes":"PUSH1 0x80 PUSH1 0x40 MSTORE CALLVALUE DUP1 ISZERO PUSH3 0x11 JUMPI PUSH1 0x0 DUP1 REVERT JUMPDEST POP PUSH1 0x40 MLOAD PUSH3 0x1B9E CODESIZE SUB DUP1 PUSH3 0x1B9E DUP4 CODECOPY DUP2 ADD PUSH1 0x40 DUP2 SWAP1 MSTORE PUSH3 0x34 SWAP2 PUSH3 0x1D9 JUMP JUMPDEST CALLER DUP1 PUSH3 0x5B JUMPI PUSH1 0x40 MLOAD PUSH4 0x1E4FBDF7 PUSH1 0xE0 SHL DUP2 MSTORE PUSH1 0x0 PUSH1 0x4 DUP3 ADD MSTORE PUSH1 0x24 ADD PUSH1 0x40 MLOAD DUP1 SWAP2 SUB SWAP1 REVERT JUMPDEST PUSH3 0x66 DUP2 PUSH3 0x14E JUMP JUMPDEST POP PUSH1 0x1 PUSH1 0x2 SSTORE PUSH1 0x1 PUSH1 0x1 PUSH1 0xA0 SHL SUB DUP4 AND PUSH3 0x94 JUMPI PUSH1 0x40 MLOAD PUSH4 0x2979EB9 PUSH1 0xE3 SHL DUP2 MSTORE PUSH1 0x4 ADD PUSH1 0x40 MLOAD DUP1 SWAP2 SUB SWAP1 REVERT JUMPDEST PUSH2 0x3E8 DUP3 GT ISZERO PUSH3 0xB8 JUMPI PUSH1 0x40 MLOAD PUSH4 0xCD4E6167 PUSH1 0xE0 SHL DUP2 MSTORE PUSH1 0x4 ADD PUSH1 0x40 MLOAD DUP1 SWAP2 SUB SWAP1 REVERT JUMPDEST PUSH1 0x5 DUP1 SLOAD PUSH1 0x1 PUSH1 0x1 PUSH1 0xA0 SHL SUB NOT AND PUSH1 0x1 PUSH1 0x1 PUSH1 0xA0 SHL SUB DUP6 DUP2 AND SWAP2 SWAP1 SWAP2 OR SWAP1 SWAP2 SSTORE PUSH1 0x8 DUP4 SWAP1 SSTORE DUP2 AND ISZERO PUSH3 0x145 JUMPI PUSH1 0x1 PUSH1 0x1 PUSH1 0xA0 SHL SUB DUP2 AND PUSH1 0x0 DUP2 DUP2 MSTORE PUSH1 0x9 PUSH1 0x20 SWAP1 DUP2 MSTORE PUSH1 0x40 SWAP2 DUP3 SWAP1 KECCAK256 DUP1 SLOAD PUSH1 0xFF NOT AND PUSH1 0x1 SWAP1 DUP2 OR SWAP1 SWAP2 SSTORE PUSH1 0xA DUP2 SWAP1 SSTORE SWAP2 MLOAD SWAP2 DUP3 MSTORE PUSH32 0x23B563B53629727DE17C5CEC4B391A63440584FDAF0D888A95BBC671DA2C62E1 SWAP2 ADD PUSH1 0x40 MLOAD DUP1 SWAP2 SUB SWAP1 LOG2 JUMPDEST POP POP POP PUSH3 0x21A JUMP JUMPDEST PUSH1 0x1 DUP1 SLOAD PUSH1 0x1 PUSH1 0x1 PUSH1 0xA0 SHL SUB NOT AND SWAP1 SSTORE PUSH3 0x169 DUP2 PUSH3 0x16C JUMP JUMPDEST POP JUMP JUMPDEST PUSH1 0x0 DUP1 SLOAD PUSH1 0x1 PUSH1 0x1 PUSH1 0xA0 SHL SUB DUP4 DUP2 AND PUSH1 0x1 PUSH1 0x1 PUSH1 0xA0 SHL SUB NOT DUP4 AND DUP2 OR DUP5 SSTORE PUSH1 0x40 MLOAD SWAP2 SWAP1 SWAP3 AND SWAP3 DUP4 SWAP2 PUSH32 0x8BE0079C531659141344CD1FD0A4F28419497F9722A3DAAFE3B4186F6B6457E0 SWAP2 SWAP1 LOG3 POP POP JUMP JUMPDEST DUP1 MLOAD PUSH1 0x1 PUSH1 0x1 PUSH1 0xA0 SHL SUB DUP2 AND DUP2 EQ PUSH3 0x1D4 JUMPI PUSH1 0x0 DUP1 REVERT JUMPDEST SWAP2 SWAP1 POP JUMP JUMPDEST PUSH1 0x0 DUP1 PUSH1 0x0 PUSH1 0x60 DUP5 DUP7 SUB SLT ISZERO PUSH3 0x1EF JUMPI PUSH1 0x0 DUP1 REVERT JUMPDEST PUSH3 0x1FA DUP5 PUSH3 0x1BC JUMP JUMPDEST SWAP3 POP PUSH1 0x20 DUP5 ADD MLOAD SWAP2 POP PUSH3 0x211 PUSH1 0x40 DUP6 ADD PUSH3 0x1BC JUMP JUMPDEST SWAP1 POP SWAP3 POP SWAP3 POP SWAP3 JUMP JUMPDEST PUSH2 0x1974 DUP1 PUSH3 0x22A PUSH1 0x0 CODECOPY PUSH1 0x0 RETURN INVALID PUSH1 0x80 PUSH1 0x40 MSTORE CALLVALUE DUP1 ISZERO PUSH2 0x10 JUMPI PUSH1 0x0 DUP1 REVERT JUMPDEST POP PUSH1 0x4 CALLDATASIZE LT PUSH2 0x23D JUMPI PUSH1 0x0 CALLDATALOAD PUSH1 0xE0 SHR DUP1 PUSH4 0x8DA5CB5B GT PUSH2 0x13B JUMPI DUP1 PUSH4 0xCA88D5C5 GT PUSH2 0xB8 JUMPI DUP1 PUSH4 0xF0F44260 GT PUSH2 0x7C JUMPI DUP1 PUSH4 0xF0F44260 EQ PUSH2 0x55C JUMPI DUP1 PUSH4 0xF2F7C06A EQ PUSH2 0x56F JUMPI DUP1 PUSH4 0xF2FDE38B EQ PUSH2 0x582 JUMPI DUP1 PUSH4 0xF3ABBA10 EQ PUSH2 0x595 JUMPI DUP1 PUSH4 0xFF8507E8 EQ PUSH2 0x5A8 JUMPI PUSH1 0x0 DUP1 REVERT JUMPDEST DUP1 PUSH4 0xCA88D5C5 EQ PUSH2 0x4E5 JUMPI DUP1 PUSH4 0xD55BE8C6 EQ PUSH2 0x527 JUMPI DUP1 PUSH4 0xDDBCB5FA EQ PUSH2 0x530 JUMPI DUP1 PUSH4 0xDF15F1AC EQ PUSH2 0x538 JUMPI DUP1 PUSH4 0xE30C3978 EQ PUSH2 0x54B JUMPI PUSH1 0x0 DUP1 REVERT JUMPDEST DUP1 PUSH4 0xBCAE25A4 GT PUSH2 0xFF JUMPI DUP1 PUSH4 0xBCAE25A4 EQ PUSH2 0x452 JUMPI DUP1 PUSH4 0xBFD9182F EQ PUSH2 0x45B JUMPI DUP1 PUSH4 0xC57BEAE4 EQ PUSH2 0x46E JUMPI DUP1 PUSH4 0xC59D4847 EQ PUSH2 0x491 JUMPI DUP1 PUSH4 0xC93A6C84 EQ PUSH2 0x4D2 JUMPI PUSH1 0x0 DUP1 REVERT JUMPDEST DUP1 PUSH4 0x8DA5CB5B EQ PUSH2 0x3E0 JUMPI DUP1 PUSH4 0x8F57E97D EQ PUSH2 0x3F1 JUMPI DUP1 PUSH4 0x94CC6D72 EQ PUSH2 0x404 JUMPI DUP1 PUSH4 0x95CCEA67 EQ PUSH2 0x42C JUMPI DUP1 PUSH4 0xB1014CBB EQ PUSH2 0x43F JUMPI PUSH1 0x0 DUP1 REVERT JUMPDEST DUP1 PUSH4 0x61D027B3 GT PUSH2 0x1C9 JUMPI DUP1 PUSH4 0x79F6351B GT PUSH2 0x18D JUMPI DUP1 PUSH4 0x79F6351B EQ PUSH2 0x383 JUMPI DUP1 PUSH4 0x80FC2E15 EQ PUSH2 0x3A3 JUMPI DUP1 PUSH4 0x8456CB59 EQ PUSH2 0x3C6 JUMPI DUP1 PUSH4 0x888A42D3 EQ PUSH2 0x3CE JUMPI DUP1 PUSH4 0x88DAE6A8 EQ PUSH2 0x3D7 JUMPI PUSH1 0x0 DUP1 REVERT JUMPDEST DUP1 PUSH4 0x61D027B3 EQ PUSH2 0x332 JUMPI DUP1 PUSH4 0x70445126 EQ PUSH2 0x35D JUMPI DUP1 PUSH4 0x70C757EC EQ PUSH2 0x366 JUMPI DUP1 PUSH4 0x715018A6 EQ PUSH2 0x373 JUMPI DUP1 PUSH4 0x79BA5097 EQ PUSH2 0x37B JUMPI PUSH1 0x0 DUP1 REVERT JUMPDEST DUP1 PUSH4 0x3A9C5712 GT PUSH2 0x210 JUMPI DUP1 PUSH4 0x3A9C5712 EQ PUSH2 0x2E4 JUMPI DUP1 PUSH4 0x3F4BA83A EQ PUSH2 0x2F9 JUMPI DUP1 PUSH4 0x425BC1E9 EQ PUSH2 0x301 JUMPI DUP1 PUSH4 0x5C975ABB EQ PUSH2 0x314 JUMPI DUP1 PUSH4 0x5E3B973E EQ PUSH2 0x31F JUMPI PUSH1 0x0 DUP1 REVERT JUMPDEST DUP1 PUSH4 0x1CEAD9A7 EQ PUSH2 0x242 JUMPI DUP1 PUSH4 0x252154FA EQ PUSH2 0x275 JUMPI DUP1 PUSH4 0x33460540 EQ PUSH2 0x288 JUMPI DUP1 PUSH4 0x38CAED9F EQ PUSH2 0x2C4 JUMPI JUMPDEST PUSH1 0x0 DUP1 REVERT JUMPDEST PUSH2 0x262 PUSH2 0x250 CALLDATASIZE PUSH1 0x4 PUSH2 0x160E JUMP JUMPDEST PUSH1 0xB PUSH1 0x20 MSTORE PUSH1 0x0 SWAP1 DUP2 MSTORE PUSH1 0x40 SWAP1 KECCAK256 SLOAD DUP2 JUMP JUMPDEST PUSH1 0x40 MLOAD SWAP1 DUP2 MSTORE PUSH1 0x20 ADD JUMPDEST PUSH1 0x40 MLOAD DUP1 SWAP2 SUB SWAP1 RETURN JUMPDEST PUSH2 0x262 PUSH2 0x283 CALLDATASIZE PUSH1 0x4 PUSH2 0x160E JUMP JUMPDEST PUSH2 0x5CB JUMP JUMPDEST PUSH2 0x2B4 PUSH2 0x296 CALLDATASIZE PUSH1 0x4 PUSH2 0x160E JUMP JUMPDEST PUSH1 0x1 PUSH1 0x1 PUSH1 0xA0 SHL SUB AND PUSH1 0x0 SWAP1 DUP2 MSTORE PUSH1 0x9 PUSH1 0x20 MSTORE PUSH1 0x40 SWAP1 KECCAK256 SLOAD PUSH1 0xFF AND SWAP1 JUMP JUMPDEST PUSH1 0x40 MLOAD SWAP1 ISZERO ISZERO DUP2 MSTORE PUSH1 0x20 ADD PUSH2 0x26C JUMP JUMPDEST PUSH2 0x262 PUSH2 0x2D2 CALLDATASIZE PUSH1 0x4 PUSH2 0x160E JUMP JUMPDEST PUSH1 0xD PUSH1 0x20 MSTORE PUSH1 0x0 SWAP1 DUP2 MSTORE PUSH1 0x40 SWAP1 KECCAK256 SLOAD DUP2 JUMP JUMPDEST PUSH2 0x2F7 PUSH2 0x2F2 CALLDATASIZE PUSH1 0x4 PUSH2 0x1640 JUMP JUMPDEST PUSH2 0x610 JUMP JUMPDEST STOP JUMPDEST PUSH2 0x2F7 PUSH2 0x677 JUMP JUMPDEST PUSH2 0x2F7 PUSH2 0x30F CALLDATASIZE PUSH1 0x4 PUSH2 0x1673 JUMP JUMPDEST PUSH2 0x689 JUMP JUMPDEST PUSH1 0x3 SLOAD PUSH1 0xFF AND PUSH2 0x2B4 JUMP JUMPDEST PUSH2 0x2F7 PUSH2 0x32D CALLDATASIZE PUSH1 0x4 PUSH2 0x16DA JUMP JUMPDEST PUSH2 0x6D8 JUMP JUMPDEST PUSH1 0x5 SLOAD PUSH2 0x345 SWAP1 PUSH1 0x1 PUSH1 0x1 PUSH1 0xA0 SHL SUB AND DUP2 JUMP JUMPDEST PUSH1 0x40 MLOAD PUSH1 0x1 PUSH1 0x1 PUSH1 0xA0 SHL SUB SWAP1 SWAP2 AND DUP2 MSTORE PUSH1 0x20 ADD PUSH2 0x26C JUMP JUMPDEST PUSH2 0x262 PUSH1 0x4 SLOAD DUP2 JUMP JUMPDEST PUSH1 0xE SLOAD PUSH2 0x2B4 SWAP1 PUSH1 0xFF AND DUP2 JUMP JUMPDEST PUSH2 0x2F7 PUSH2 0x7C2 JUMP JUMPDEST PUSH2 0x2F7 PUSH2 0x7D4 JUMP JUMPDEST PUSH2 0x262 PUSH2 0x391 CALLDATASIZE PUSH1 0x4 PUSH2 0x160E JUMP JUMPDEST PUSH1 0x6 PUSH1 0x20 MSTORE PUSH1 0x0 SWAP1 DUP2 MSTORE PUSH1 0x40 SWAP1 KECCAK256 SLOAD DUP2 JUMP JUMPDEST PUSH2 0x2B4 PUSH2 0x3B1 CALLDATASIZE PUSH1 0x4 PUSH2 0x160E JUMP JUMPDEST PUSH1 0x7 PUSH1 0x20 MSTORE PUSH1 0x0 SWAP1 DUP2 MSTORE PUSH1 0x40 SWAP1 KECCAK256 SLOAD PUSH1 0xFF AND DUP2 JUMP JUMPDEST PUSH2 0x2F7 PUSH2 0x81D JUMP JUMPDEST PUSH2 0x262 PUSH1 0xA SLOAD DUP2 JUMP JUMPDEST PUSH2 0x262 PUSH1 0xC SLOAD DUP2 JUMP JUMPDEST PUSH1 0x0 SLOAD PUSH1 0x1 PUSH1 0x1 PUSH1 0xA0 SHL SUB AND PUSH2 0x345 JUMP JUMPDEST PUSH2 0x2F7 PUSH2 0x3FF CALLDATASIZE PUSH1 0x4 PUSH2 0x1640 JUMP JUMPDEST PUSH2 0x82D JUMP JUMPDEST PUSH2 0x417 PUSH2 0x412 CALLDATASIZE PUSH1 0x4 PUSH2 0x172E JUMP JUMPDEST PUSH2 0x92F JUMP JUMPDEST PUSH1 0x40 DUP1 MLOAD SWAP3 DUP4 MSTORE PUSH1 0x20 DUP4 ADD SWAP2 SWAP1 SWAP2 MSTORE ADD PUSH2 0x26C JUMP JUMPDEST PUSH2 0x2F7 PUSH2 0x43A CALLDATASIZE PUSH1 0x4 PUSH2 0x1779 JUMP JUMPDEST PUSH2 0xC44 JUMP JUMPDEST PUSH2 0x2F7 PUSH2 0x44D CALLDATASIZE PUSH1 0x4 PUSH2 0x1779 JUMP JUMPDEST PUSH2 0xD32 JUMP JUMPDEST PUSH2 0x262 PUSH1 0x8 SLOAD DUP2 JUMP JUMPDEST PUSH2 0x2F7 PUSH2 0x469 CALLDATASIZE PUSH1 0x4 PUSH2 0x17A3 JUMP JUMPDEST PUSH2 0xDC7 JUMP JUMPDEST PUSH2 0x2B4 PUSH2 0x47C CALLDATASIZE PUSH1 0x4 PUSH2 0x160E JUMP JUMPDEST PUSH1 0x9 PUSH1 0x20 MSTORE PUSH1 0x0 SWAP1 DUP2 MSTORE PUSH1 0x40 SWAP1 KECCAK256 SLOAD PUSH1 0xFF AND DUP2 JUMP JUMPDEST PUSH2 0x499 PUSH2 0xE15 JUMP JUMPDEST PUSH1 0x40 DUP1 MLOAD SWAP7 DUP8 MSTORE PUSH1 0x1 PUSH1 0x1 PUSH1 0xA0 SHL SUB SWAP1 SWAP6 AND PUSH1 0x20 DUP8 ADD MSTORE SWAP4 DUP6 ADD SWAP3 SWAP1 SWAP3 MSTORE PUSH1 0x60 DUP5 ADD MSTORE ISZERO ISZERO PUSH1 0x80 DUP4 ADD MSTORE ISZERO ISZERO PUSH1 0xA0 DUP3 ADD MSTORE PUSH1 0xC0 ADD PUSH2 0x26C JUMP JUMPDEST PUSH2 0x2F7 PUSH2 0x4E0 CALLDATASIZE PUSH1 0x4 PUSH2 0x17A3 JUMP JUMPDEST PUSH2 0xE63 JUMP JUMPDEST PUSH2 0x4F8 PUSH2 0x4F3 CALLDATASIZE PUSH1 0x4 PUSH2 0x160E JUMP JUMPDEST PUSH2 0xECC JUMP JUMPDEST PUSH1 0x40 MLOAD PUSH2 0x26C SWAP6 SWAP5 SWAP4 SWAP3 SWAP2 SWAP1 SWAP5 DUP6 MSTORE SWAP3 ISZERO ISZERO PUSH1 0x20 DUP6 ADD MSTORE SWAP1 ISZERO ISZERO PUSH1 0x40 DUP5 ADD MSTORE PUSH1 0x60 DUP4 ADD MSTORE PUSH1 0x80 DUP3 ADD MSTORE PUSH1 0xA0 ADD SWAP1 JUMP JUMPDEST PUSH2 0x262 PUSH2 0x3E8 DUP2 JUMP JUMPDEST PUSH2 0x262 PUSH1 0x1 DUP2 JUMP JUMPDEST PUSH2 0x417 PUSH2 0x546 CALLDATASIZE PUSH1 0x4 PUSH2 0x1779 JUMP JUMPDEST PUSH2 0xF2E JUMP JUMPDEST PUSH1 0x1 SLOAD PUSH1 0x1 PUSH1 0x1 PUSH1 0xA0 SHL SUB AND PUSH2 0x345 JUMP JUMPDEST PUSH2 0x2F7 PUSH2 0x56A CALLDATASIZE PUSH1 0x4 PUSH2 0x160E JUMP JUMPDEST PUSH2 0xF6B JUMP JUMPDEST PUSH2 0x2F7 PUSH2 0x57D CALLDATASIZE PUSH1 0x4 PUSH2 0x17BC JUMP JUMPDEST PUSH2 0xFEC JUMP JUMPDEST PUSH2 0x2F7 PUSH2 0x590 CALLDATASIZE PUSH1 0x4 PUSH2 0x160E JUMP JUMPDEST PUSH2 0x1103 JUMP JUMPDEST PUSH2 0x2F7 PUSH2 0x5A3 CALLDATASIZE PUSH1 0x4 PUSH2 0x17F8 JUMP JUMPDEST PUSH2 0x1174 JUMP JUMPDEST PUSH2 0x2B4 PUSH2 0x5B6 CALLDATASIZE PUSH1 0x4 PUSH2 0x160E JUMP JUMPDEST PUSH1 0xF PUSH1 0x20 MSTORE PUSH1 0x0 SWAP1 DUP2 MSTORE PUSH1 0x40 SWAP1 KECCAK256 SLOAD PUSH1 0xFF AND DUP2 JUMP JUMPDEST PUSH1 0x1 PUSH1 0x1 PUSH1 0xA0 SHL SUB DUP2 AND PUSH1 0x0 SWAP1 DUP2 MSTORE PUSH1 0x7 PUSH1 0x20 MSTORE PUSH1 0x40 DUP2 KECCAK256 SLOAD PUSH1 0xFF AND ISZERO PUSH2 0x608 JUMPI POP PUSH1 0x1 PUSH1 0x1 PUSH1 0xA0 SHL SUB AND PUSH1 0x0 SWAP1 DUP2 MSTORE PUSH1 0x6 PUSH1 0x20 MSTORE PUSH1 0x40 SWAP1 KECCAK256 SLOAD SWAP1 JUMP JUMPDEST POP POP PUSH1 0x8 SLOAD SWAP1 JUMP JUMPDEST PUSH2 0x618 PUSH2 0x1396 JUMP JUMPDEST PUSH1 0x1 PUSH1 0x1 PUSH1 0xA0 SHL SUB DUP3 AND PUSH1 0x0 DUP2 DUP2 MSTORE PUSH1 0xF PUSH1 0x20 SWAP1 DUP2 MSTORE PUSH1 0x40 SWAP2 DUP3 SWAP1 KECCAK256 DUP1 SLOAD PUSH1 0xFF NOT AND DUP6 ISZERO ISZERO SWAP1 DUP2 OR SWAP1 SWAP2 SSTORE SWAP2 MLOAD SWAP2 DUP3 MSTORE PUSH32 0x67821D5384BB02AAB1BA91A477F89C9966CD30F475B02618BDC58712BCA51275 SWAP2 ADD PUSH1 0x40 MLOAD DUP1 SWAP2 SUB SWAP1 LOG2 POP POP JUMP JUMPDEST PUSH2 0x67F PUSH2 0x1396 JUMP JUMPDEST PUSH2 0x687 PUSH2 0x13C3 JUMP JUMPDEST JUMP JUMPDEST PUSH2 0x691 PUSH2 0x1396 JUMP JUMPDEST PUSH1 0xE DUP1 SLOAD PUSH1 0xFF NOT AND DUP3 ISZERO ISZERO SWAP1 DUP2 OR SWAP1 SWAP2 SSTORE PUSH1 0x40 MLOAD SWAP1 DUP2 MSTORE PUSH32 0x2D096E0CE298196D706256BE0F2A6EF71011A475A3224558A3A71386DA284E65 SWAP1 PUSH1 0x20 ADD PUSH1 0x40 MLOAD DUP1 SWAP2 SUB SWAP1 LOG1 POP JUMP JUMPDEST PUSH2 0x6E0 PUSH2 0x1396 JUMP JUMPDEST PUSH1 0x0 JUMPDEST DUP3 DUP2 LT ISZERO PUSH2 0x7BC JUMPI DUP2 PUSH1 0xF PUSH1 0x0 DUP7 DUP7 DUP6 DUP2 DUP2 LT PUSH2 0x702 JUMPI PUSH2 0x702 PUSH2 0x1864 JUMP JUMPDEST SWAP1 POP PUSH1 0x20 MUL ADD PUSH1 0x20 DUP2 ADD SWAP1 PUSH2 0x717 SWAP2 SWAP1 PUSH2 0x160E JUMP JUMPDEST PUSH1 0x1 PUSH1 0x1 PUSH1 0xA0 SHL SUB AND DUP2 MSTORE PUSH1 0x20 DUP2 ADD SWAP2 SWAP1 SWAP2 MSTORE PUSH1 0x40 ADD PUSH1 0x0 KECCAK256 DUP1 SLOAD PUSH1 0xFF NOT AND SWAP2 ISZERO ISZERO SWAP2 SWAP1 SWAP2 OR SWAP1 SSTORE DUP4 DUP4 DUP3 DUP2 DUP2 LT PUSH2 0x751 JUMPI PUSH2 0x751 PUSH2 0x1864 JUMP JUMPDEST SWAP1 POP PUSH1 0x20 MUL ADD PUSH1 0x20 DUP2 ADD SWAP1 PUSH2 0x766 SWAP2 SWAP1 PUSH2 0x160E JUMP JUMPDEST PUSH1 0x1 PUSH1 0x1 PUSH1 0xA0 SHL SUB AND PUSH32 0x67821D5384BB02AAB1BA91A477F89C9966CD30F475B02618BDC58712BCA51275 DUP4 PUSH1 0x40 MLOAD PUSH2 0x7A2 SWAP2 ISZERO ISZERO DUP2 MSTORE PUSH1 0x20 ADD SWAP1 JUMP JUMPDEST PUSH1 0x40 MLOAD DUP1 SWAP2 SUB SWAP1 LOG2 DUP1 PUSH2 0x7B4 DUP2 PUSH2 0x1890 JUMP JUMPDEST SWAP2 POP POP PUSH2 0x6E3 JUMP JUMPDEST POP POP POP POP JUMP JUMPDEST PUSH2 0x7CA PUSH2 0x1396 JUMP JUMPDEST PUSH2 0x687 PUSH1 0x0 PUSH2 0x1415 JUMP JUMPDEST PUSH1 0x1 SLOAD CALLER SWAP1 PUSH1 0x1 PUSH1 0x1 PUSH1 0xA0 SHL SUB AND DUP2 EQ PUSH2 0x811 JUMPI PUSH1 0x40 MLOAD PUSH4 0x118CDAA7 PUSH1 0xE0 SHL DUP2 MSTORE PUSH1 0x1 PUSH1 0x1 PUSH1 0xA0 SHL SUB DUP3 AND PUSH1 0x4 DUP3 ADD MSTORE PUSH1 0x24 ADD JUMPDEST PUSH1 0x40 MLOAD DUP1 SWAP2 SUB SWAP1 REVERT JUMPDEST PUSH2 0x81A DUP2 PUSH2 0x1415 JUMP JUMPDEST POP JUMP JUMPDEST PUSH2 0x825 PUSH2 0x1396 JUMP JUMPDEST PUSH2 0x687 PUSH2 0x142E JUMP JUMPDEST PUSH2 0x835 PUSH2 0x1396 JUMP JUMPDEST PUSH1 0x1 PUSH1 0x1 PUSH1 0xA0 SHL SUB DUP3 AND PUSH2 0x85C JUMPI PUSH1 0x40 MLOAD PUSH4 0x4E469669 PUSH1 0xE1 SHL DUP2 MSTORE PUSH1 0x4 ADD PUSH1 0x40 MLOAD DUP1 SWAP2 SUB SWAP1 REVERT JUMPDEST PUSH1 0x1 PUSH1 0x1 PUSH1 0xA0 SHL SUB DUP3 AND PUSH1 0x0 SWAP1 DUP2 MSTORE PUSH1 0x9 PUSH1 0x20 MSTORE PUSH1 0x40 SWAP1 KECCAK256 SLOAD PUSH1 0xFF AND DUP2 ISZERO ISZERO DUP2 ISZERO ISZERO SUB PUSH2 0x888 JUMPI POP POP POP JUMP JUMPDEST PUSH1 0x1 PUSH1 0x1 PUSH1 0xA0 SHL SUB DUP4 AND PUSH1 0x0 SWAP1 DUP2 MSTORE PUSH1 0x9 PUSH1 0x20 MSTORE PUSH1 0x40 SWAP1 KECCAK256 DUP1 SLOAD PUSH1 0xFF NOT AND DUP4 ISZERO DUP1 ISZERO SWAP2 SWAP1 SWAP2 OR SWAP1 SWAP2 SSTORE PUSH2 0x8CF JUMPI PUSH1 0xA DUP1 SLOAD SWAP1 PUSH1 0x0 PUSH2 0x8C5 DUP4 PUSH2 0x1890 JUMP JUMPDEST SWAP2 SWAP1 POP SSTORE POP PUSH2 0x8E5 JUMP JUMPDEST PUSH1 0xA DUP1 SLOAD SWAP1 PUSH1 0x0 PUSH2 0x8DF DUP4 PUSH2 0x18A9 JUMP JUMPDEST SWAP2 SWAP1 POP SSTORE POP JUMPDEST DUP3 PUSH1 0x1 PUSH1 0x1 PUSH1 0xA0 SHL SUB AND PUSH32 0x23B563B53629727DE17C5CEC4B391A63440584FDAF0D888A95BBC671DA2C62E1 DUP4 PUSH1 0x40 MLOAD PUSH2 0x922 SWAP2 ISZERO ISZERO DUP2 MSTORE PUSH1 0x20 ADD SWAP1 JUMP JUMPDEST PUSH1 0x40 MLOAD DUP1 SWAP2 SUB SWAP1 LOG2 POP POP POP JUMP JUMPDEST PUSH1 0x0 DUP1 PUSH2 0x93A PUSH2 0x146B JUMP JUMPDEST PUSH2 0x942 PUSH2 0x1493 JUMP JUMPDEST CALLER PUSH1 0x0 SWAP1 DUP2 MSTORE PUSH1 0x9 PUSH1 0x20 MSTORE PUSH1 0x40 SWAP1 KECCAK256 SLOAD PUSH1 0xFF AND PUSH2 0x972 JUMPI PUSH1 0x40 MLOAD PUSH4 0x2AB21321 PUSH1 0xE0 SHL DUP2 MSTORE PUSH1 0x4 ADD PUSH1 0x40 MLOAD DUP1 SWAP2 SUB SWAP1 REVERT JUMPDEST PUSH1 0x1 PUSH1 0x1 PUSH1 0xA0 SHL SUB DUP7 AND PUSH2 0x999 JUMPI PUSH1 0x40 MLOAD PUSH4 0xC1AB6DC1 PUSH1 0xE0 SHL DUP2 MSTORE PUSH1 0x4 ADD PUSH1 0x40 MLOAD DUP1 SWAP2 SUB SWAP1 REVERT JUMPDEST PUSH1 0x1 PUSH1 0x1 PUSH1 0xA0 SHL SUB DUP5 AND ISZERO DUP1 PUSH2 0x9B7 JUMPI POP PUSH1 0x1 PUSH1 0x1 PUSH1 0xA0 SHL SUB DUP5 AND ADDRESS EQ JUMPDEST ISZERO PUSH2 0x9D5 JUMPI PUSH1 0x40 MLOAD PUSH4 0x4E469669 PUSH1 0xE1 SHL DUP2 MSTORE PUSH1 0x4 ADD PUSH1 0x40 MLOAD DUP1 SWAP2 SUB SWAP1 REVERT JUMPDEST PUSH1 0x1 DUP4 LT ISZERO PUSH2 0x9F7 JUMPI PUSH1 0x40 MLOAD PUSH4 0x162908E3 PUSH1 0xE1 SHL DUP2 MSTORE PUSH1 0x4 ADD PUSH1 0x40 MLOAD DUP1 SWAP2 SUB SWAP1 REVERT JUMPDEST PUSH1 0xE SLOAD PUSH1 0xFF AND DUP1 ISZERO PUSH2 0xA22 JUMPI POP PUSH1 0x1 PUSH1 0x1 PUSH1 0xA0 SHL SUB DUP7 AND PUSH1 0x0 SWAP1 DUP2 MSTORE PUSH1 0xF PUSH1 0x20 MSTORE PUSH1 0x40 SWAP1 KECCAK256 SLOAD PUSH1 0xFF AND ISZERO JUMPDEST ISZERO PUSH2 0xA40 JUMPI PUSH1 0x40 MLOAD PUSH4 0x7C241AD PUSH1 0xE5 SHL DUP2 MSTORE PUSH1 0x4 ADD PUSH1 0x40 MLOAD DUP1 SWAP2 SUB SWAP1 REVERT JUMPDEST PUSH1 0x0 PUSH1 0x4 SLOAD GT DUP1 ISZERO PUSH2 0xA53 JUMPI POP PUSH1 0x4 SLOAD DUP4 GT JUMPDEST ISZERO PUSH2 0xA71 JUMPI PUSH1 0x40 MLOAD PUSH4 0x172BD6A1 PUSH1 0xE3 SHL DUP2 MSTORE PUSH1 0x4 ADD PUSH1 0x40 MLOAD DUP1 SWAP2 SUB SWAP1 REVERT JUMPDEST PUSH1 0x40 MLOAD PUSH4 0x70A08231 PUSH1 0xE0 SHL DUP2 MSTORE ADDRESS PUSH1 0x4 DUP3 ADD MSTORE PUSH1 0x0 SWAP1 PUSH1 0x1 PUSH1 0x1 PUSH1 0xA0 SHL SUB DUP9 AND SWAP1 PUSH4 0x70A08231 SWAP1 PUSH1 0x24 ADD PUSH1 0x20 PUSH1 0x40 MLOAD DUP1 DUP4 SUB DUP2 DUP7 GAS STATICCALL ISZERO DUP1 ISZERO PUSH2 0xAB8 JUMPI RETURNDATASIZE PUSH1 0x0 DUP1 RETURNDATACOPY RETURNDATASIZE PUSH1 0x0 REVERT JUMPDEST POP POP POP POP PUSH1 0x40 MLOAD RETURNDATASIZE PUSH1 0x1F NOT PUSH1 0x1F DUP3 ADD AND DUP3 ADD DUP1 PUSH1 0x40 MSTORE POP DUP2 ADD SWAP1 PUSH2 0xADC SWAP2 SWAP1 PUSH2 0x18C0 JUMP JUMPDEST SWAP1 POP DUP4 DUP2 LT ISZERO PUSH2 0xAFF JUMPI PUSH1 0x40 MLOAD PUSH4 0x1E9ACF17 PUSH1 0xE3 SHL DUP2 MSTORE PUSH1 0x4 ADD PUSH1 0x40 MLOAD DUP1 SWAP2 SUB SWAP1 REVERT JUMPDEST PUSH1 0x0 PUSH2 0xB0A DUP9 PUSH2 0x5CB JUMP JUMPDEST SWAP1 POP PUSH2 0x2710 PUSH2 0xB19 DUP3 DUP8 PUSH2 0x18D9 JUMP JUMPDEST PUSH2 0xB23 SWAP2 SWAP1 PUSH2 0x18F6 JUMP JUMPDEST SWAP3 POP PUSH2 0xB2F DUP4 DUP7 PUSH2 0x1918 JUMP JUMPDEST SWAP4 POP PUSH2 0xB45 PUSH1 0x1 PUSH1 0x1 PUSH1 0xA0 SHL SUB DUP10 AND DUP8 DUP7 PUSH2 0x14B7 JUMP JUMPDEST DUP3 ISZERO PUSH2 0xB93 JUMPI PUSH1 0x5 SLOAD PUSH2 0xB65 SWAP1 PUSH1 0x1 PUSH1 0x1 PUSH1 0xA0 SHL SUB DUP11 DUP2 AND SWAP2 AND DUP6 PUSH2 0x14B7 JUMP JUMPDEST PUSH1 0x1 PUSH1 0x1 PUSH1 0xA0 SHL SUB DUP9 AND PUSH1 0x0 SWAP1 DUP2 MSTORE PUSH1 0xB PUSH1 0x20 MSTORE PUSH1 0x40 DUP2 KECCAK256 DUP1 SLOAD DUP6 SWAP3 SWAP1 PUSH2 0xB8D SWAP1 DUP5 SWAP1 PUSH2 0x192B JUMP JUMPDEST SWAP1 SWAP2 SSTORE POP POP JUMPDEST PUSH1 0xC DUP1 SLOAD SWAP1 PUSH1 0x0 PUSH2 0xBA3 DUP4 PUSH2 0x1890 JUMP JUMPDEST SWAP1 SWAP2 SSTORE POP POP PUSH1 0x1 PUSH1 0x1 PUSH1 0xA0 SHL SUB DUP9 AND PUSH1 0x0 SWAP1 DUP2 MSTORE PUSH1 0xD PUSH1 0x20 MSTORE PUSH1 0x40 DUP2 KECCAK256 DUP1 SLOAD DUP8 SWAP3 SWAP1 PUSH2 0xBD0 SWAP1 DUP5 SWAP1 PUSH2 0x192B JUMP JUMPDEST SWAP1 SWAP2 SSTORE POP POP PUSH1 0x40 DUP1 MLOAD DUP7 DUP2 MSTORE PUSH1 0x20 DUP2 ADD DUP7 SWAP1 MSTORE SWAP1 DUP2 ADD DUP5 SWAP1 MSTORE CALLER PUSH1 0x60 DUP3 ADD MSTORE PUSH1 0x1 PUSH1 0x1 PUSH1 0xA0 SHL SUB DUP1 DUP9 AND SWAP2 DUP10 DUP3 AND SWAP2 DUP12 AND SWAP1 PUSH32 0xB4774686571AEA02FF343FA83C0E541C702F4CA498995FFBEA473FEA45F5A252 SWAP1 PUSH1 0x80 ADD PUSH1 0x40 MLOAD DUP1 SWAP2 SUB SWAP1 LOG4 POP POP PUSH2 0xC3B PUSH1 0x1 PUSH1 0x2 SSTORE JUMP JUMPDEST SWAP5 POP SWAP5 SWAP3 POP POP POP JUMP JUMPDEST PUSH2 0xC4C PUSH2 0x1396 JUMP JUMPDEST PUSH1 0x40 MLOAD PUSH4 0x70A08231 PUSH1 0xE0 SHL DUP2 MSTORE ADDRESS PUSH1 0x4 DUP3 ADD MSTORE PUSH1 0x0 SWAP1 PUSH1 0x1 PUSH1 0x1 PUSH1 0xA0 SHL SUB DUP5 AND SWAP1 PUSH4 0x70A08231 SWAP1 PUSH1 0x24 ADD PUSH1 0x20 PUSH1 0x40 MLOAD DUP1 DUP4 SUB DUP2 DUP7 GAS STATICCALL ISZERO DUP1 ISZERO PUSH2 0xC93 JUMPI RETURNDATASIZE PUSH1 0x0 DUP1 RETURNDATACOPY RETURNDATASIZE PUSH1 0x0 REVERT JUMPDEST POP POP POP POP PUSH1 0x40 MLOAD RETURNDATASIZE PUSH1 0x1F NOT PUSH1 0x1F DUP3 ADD AND DUP3 ADD DUP1 PUSH1 0x40 MSTORE POP DUP2 ADD SWAP1 PUSH2 0xCB7 SWAP2 SWAP1 PUSH2 0x18C0 JUMP JUMPDEST SWAP1 POP PUSH1 0x0 DUP2 DUP4 GT PUSH2 0xCC8 JUMPI DUP3 PUSH2 0xCCA JUMP JUMPDEST DUP2 JUMPDEST PUSH1 0x5 SLOAD SWAP1 SWAP2 POP PUSH2 0xCE7 SWAP1 PUSH1 0x1 PUSH1 0x1 PUSH1 0xA0 SHL SUB DUP7 DUP2 AND SWAP2 AND DUP4 PUSH2 0x14B7 JUMP JUMPDEST PUSH1 0x5 SLOAD PUSH1 0x40 MLOAD DUP3 DUP2 MSTORE PUSH1 0x1 PUSH1 0x1 PUSH1 0xA0 SHL SUB SWAP2 DUP3 AND SWAP2 DUP7 AND SWAP1 PUSH32 0xF24EF89F38EADC1BDE50701AD6E4D6D11A2DC24F7CF834A486991F3883328504 SWAP1 PUSH1 0x20 ADD PUSH1 0x40 MLOAD DUP1 SWAP2 SUB SWAP1 LOG3 POP POP POP POP JUMP JUMPDEST PUSH2 0xD3A PUSH2 0x1396 JUMP JUMPDEST PUSH2 0x3E8 DUP2 GT ISZERO PUSH2 0xD5D JUMPI PUSH1 0x40 MLOAD PUSH4 0xCD4E6167 PUSH1 0xE0 SHL DUP2 MSTORE PUSH1 0x4 ADD PUSH1 0x40 MLOAD DUP1 SWAP2 SUB SWAP1 REVERT JUMPDEST PUSH1 0x1 PUSH1 0x1 PUSH1 0xA0 SHL SUB DUP3 AND PUSH1 0x0 DUP2 DUP2 MSTORE PUSH1 0x6 PUSH1 0x20 SWAP1 DUP2 MSTORE PUSH1 0x40 DUP1 DUP4 KECCAK256 DUP1 SLOAD SWAP1 DUP7 SWAP1 SSTORE PUSH1 0x7 DUP4 MSTORE SWAP3 DUP2 SWAP1 KECCAK256 DUP1 SLOAD PUSH1 0xFF NOT AND PUSH1 0x1 OR SWAP1 SSTORE DUP1 MLOAD DUP4 DUP2 MSTORE SWAP2 DUP3 ADD DUP6 SWAP1 MSTORE SWAP2 SWAP3 SWAP2 PUSH32 0x5FE83DA06836532AA42F928FE690751E055C28DAFB29FD9081EDBB43C931E8CD SWAP2 ADD PUSH2 0x922 JUMP JUMPDEST PUSH2 0xDCF PUSH2 0x1396 JUMP JUMPDEST PUSH1 0x4 DUP1 SLOAD SWAP1 DUP3 SWAP1 SSTORE PUSH1 0x40 DUP1 MLOAD DUP3 DUP2 MSTORE PUSH1 0x20 DUP2 ADD DUP5 SWAP1 MSTORE PUSH32 0x99C63B310ED8BF13AF0912B2A4334E6AD43B675FAB58FB80238BB5DE3477B0D7 SWAP2 ADD JUMPDEST PUSH1 0x40 MLOAD DUP1 SWAP2 SUB SWAP1 LOG1 POP POP JUMP JUMPDEST PUSH1 0x0 DUP1 PUSH1 0x0 DUP1 PUSH1 0x0 DUP1 PUSH1 0xC SLOAD PUSH1 0x5 PUSH1 0x0 SWAP1 SLOAD SWAP1 PUSH2 0x100 EXP SWAP1 DIV PUSH1 0x1 PUSH1 0x1 PUSH1 0xA0 SHL SUB AND PUSH1 0x8 SLOAD PUSH1 0xA SLOAD PUSH2 0xE49 PUSH1 0x3 SLOAD PUSH1 0xFF AND SWAP1 JUMP JUMPDEST PUSH1 0xE SLOAD SWAP5 SWAP12 SWAP4 SWAP11 POP SWAP2 SWAP9 POP SWAP7 POP SWAP5 POP PUSH1 0xFF SWAP1 SWAP2 AND SWAP3 POP SWAP1 POP JUMP JUMPDEST PUSH2 0xE6B PUSH2 0x1396 JUMP JUMPDEST PUSH2 0x3E8 DUP2 GT ISZERO PUSH2 0xE8E JUMPI PUSH1 0x40 MLOAD PUSH4 0xCD4E6167 PUSH1 0xE0 SHL DUP2 MSTORE PUSH1 0x4 ADD PUSH1 0x40 MLOAD DUP1 SWAP2 SUB SWAP1 REVERT JUMPDEST PUSH1 0x8 DUP1 SLOAD SWAP1 DUP3 SWAP1 SSTORE PUSH1 0x40 DUP1 MLOAD DUP3 DUP2 MSTORE PUSH1 0x20 DUP2 ADD DUP5 SWAP1 MSTORE PUSH32 0xAC1F58CD233FC224BD53B979E04547B08F9E5DA37A3FA94F2AFA216DFBA59230 SWAP2 ADD PUSH2 0xE09 JUMP JUMPDEST PUSH1 0x0 DUP1 PUSH1 0x0 DUP1 PUSH1 0x0 PUSH2 0xEDD DUP7 PUSH2 0x5CB JUMP JUMPDEST PUSH1 0x1 PUSH1 0x1 PUSH1 0xA0 SHL SUB SWAP7 SWAP1 SWAP7 AND PUSH1 0x0 SWAP1 DUP2 MSTORE PUSH1 0x7 PUSH1 0x20 SWAP1 DUP2 MSTORE PUSH1 0x40 DUP1 DUP4 KECCAK256 SLOAD PUSH1 0xF DUP4 MSTORE DUP2 DUP5 KECCAK256 SLOAD PUSH1 0xB DUP5 MSTORE DUP3 DUP6 KECCAK256 SLOAD PUSH1 0xD SWAP1 SWAP5 MSTORE SWAP2 SWAP1 SWAP4 KECCAK256 SLOAD SWAP9 SWAP10 PUSH1 0xFF SWAP4 DUP5 AND SWAP10 SWAP4 SWAP1 SWAP2 AND SWAP8 POP SWAP1 SWAP6 POP SWAP1 SWAP4 POP SWAP2 POP POP JUMP JUMPDEST PUSH1 0x0 DUP1 PUSH1 0x0 PUSH2 0xF3C DUP6 PUSH2 0x5CB JUMP JUMPDEST SWAP1 POP PUSH2 0x2710 PUSH2 0xF4B DUP3 DUP7 PUSH2 0x18D9 JUMP JUMPDEST PUSH2 0xF55 SWAP2 SWAP1 PUSH2 0x18F6 JUMP JUMPDEST SWAP2 POP PUSH2 0xF61 DUP3 DUP6 PUSH2 0x1918 JUMP JUMPDEST SWAP3 POP POP SWAP3 POP SWAP3 SWAP1 POP JUMP JUMPDEST PUSH2 0xF73 PUSH2 0x1396 JUMP JUMPDEST PUSH1 0x1 PUSH1 0x1 PUSH1 0xA0 SHL SUB DUP2 AND PUSH2 0xF9A JUMPI PUSH1 0x40 MLOAD PUSH4 0x2979EB9 PUSH1 0xE3 SHL DUP2 MSTORE PUSH1 0x4 ADD PUSH1 0x40 MLOAD DUP1 SWAP2 SUB SWAP1 REVERT JUMPDEST PUSH1 0x5 DUP1 SLOAD PUSH1 0x1 PUSH1 0x1 PUSH1 0xA0 SHL SUB DUP4 DUP2 AND PUSH1 0x1 PUSH1 0x1 PUSH1 0xA0 SHL SUB NOT DUP4 AND DUP2 OR SWAP1 SWAP4 SSTORE PUSH1 0x40 MLOAD SWAP2 AND SWAP2 SWAP1 DUP3 SWAP1 PUSH32 0x4AB5BE82436D353E61CA18726E984E561F5C1CC7C6D38B29D2553C790434705A SWAP1 PUSH1 0x0 SWAP1 LOG3 POP POP JUMP JUMPDEST PUSH2 0xFF4 PUSH2 0x1396 JUMP JUMPDEST PUSH1 0x1 PUSH1 0x1 PUSH1 0xA0 SHL SUB DUP3 AND PUSH2 0x101B JUMPI PUSH1 0x40 MLOAD PUSH4 0x4E469669 PUSH1 0xE1 SHL DUP2 MSTORE PUSH1 0x4 ADD PUSH1 0x40 MLOAD DUP1 SWAP2 SUB SWAP1 REVERT JUMPDEST PUSH1 0x40 MLOAD PUSH4 0x70A08231 PUSH1 0xE0 SHL DUP2 MSTORE ADDRESS PUSH1 0x4 DUP3 ADD MSTORE PUSH1 0x0 SWAP1 PUSH1 0x1 PUSH1 0x1 PUSH1 0xA0 SHL SUB DUP6 AND SWAP1 PUSH4 0x70A08231 SWAP1 PUSH1 0x24 ADD PUSH1 0x20 PUSH1 0x40 MLOAD DUP1 DUP4 SUB DUP2 DUP7 GAS STATICCALL ISZERO DUP1 ISZERO PUSH2 0x1062 JUMPI RETURNDATASIZE PUSH1 0x0 DUP1 RETURNDATACOPY RETURNDATASIZE PUSH1 0x0 REVERT JUMPDEST POP POP POP POP PUSH1 0x40 MLOAD RETURNDATASIZE PUSH1 0x1F NOT PUSH1 0x1F DUP3 ADD AND DUP3 ADD DUP1 PUSH1 0x40 MSTORE POP DUP2 ADD SWAP1 PUSH2 0x1086 SWAP2 SWAP1 PUSH2 0x18C0 JUMP JUMPDEST SWAP1 POP PUSH1 0x0 DUP2 DUP4 GT PUSH2 0x1097 JUMPI DUP3 PUSH2 0x1099 JUMP JUMPDEST DUP2 JUMPDEST SWAP1 POP PUSH2 0x10AF PUSH1 0x1 PUSH1 0x1 PUSH1 0xA0 SHL SUB DUP7 AND DUP6 DUP4 PUSH2 0x14B7 JUMP JUMPDEST DUP4 PUSH1 0x1 PUSH1 0x1 PUSH1 0xA0 SHL SUB AND DUP6 PUSH1 0x1 PUSH1 0x1 PUSH1 0xA0 SHL SUB AND PUSH32 0xF24EF89F38EADC1BDE50701AD6E4D6D11A2DC24F7CF834A486991F3883328504 DUP4 PUSH1 0x40 MLOAD PUSH2 0x10F4 SWAP2 DUP2 MSTORE PUSH1 0x20 ADD SWAP1 JUMP JUMPDEST PUSH1 0x40 MLOAD DUP1 SWAP2 SUB SWAP1 LOG3 POP POP POP POP POP JUMP JUMPDEST PUSH2 0x110B PUSH2 0x1396 JUMP JUMPDEST PUSH1 0x1 DUP1 SLOAD PUSH1 0x1 PUSH1 0x1 PUSH1 0xA0 SHL SUB DUP4 AND PUSH1 0x1 PUSH1 0x1 PUSH1 0xA0 SHL SUB NOT SWAP1 SWAP2 AND DUP2 OR SWAP1 SWAP2 SSTORE PUSH2 0x113C PUSH1 0x0 SLOAD PUSH1 0x1 PUSH1 0x1 PUSH1 0xA0 SHL SUB AND SWAP1 JUMP JUMPDEST PUSH1 0x1 PUSH1 0x1 PUSH1 0xA0 SHL SUB AND PUSH32 0x38D16B8CAC22D99FC7C124B9CD0DE2D3FA1FAEF420BFE791D8C362D765E22700 PUSH1 0x40 MLOAD PUSH1 0x40 MLOAD DUP1 SWAP2 SUB SWAP1 LOG3 POP JUMP JUMPDEST PUSH2 0x117C PUSH2 0x1396 JUMP JUMPDEST DUP3 DUP2 EQ PUSH2 0x119F JUMPI PUSH1 0x40 MLOAD PUSH1 0x1 PUSH3 0x1398B9 PUSH1 0xE3 SHL SUB NOT DUP2 MSTORE PUSH1 0x4 ADD PUSH1 0x40 MLOAD DUP1 SWAP2 SUB SWAP1 REVERT JUMPDEST PUSH1 0x0 JUMPDEST DUP4 DUP2 LT ISZERO PUSH2 0x138F JUMPI PUSH2 0x3E8 DUP4 DUP4 DUP4 DUP2 DUP2 LT PUSH2 0x11BF JUMPI PUSH2 0x11BF PUSH2 0x1864 JUMP JUMPDEST SWAP1 POP PUSH1 0x20 MUL ADD CALLDATALOAD GT ISZERO PUSH2 0x11E5 JUMPI PUSH1 0x40 MLOAD PUSH4 0xCD4E6167 PUSH1 0xE0 SHL DUP2 MSTORE PUSH1 0x4 ADD PUSH1 0x40 MLOAD DUP1 SWAP2 SUB SWAP1 REVERT JUMPDEST PUSH1 0x0 PUSH1 0x6 PUSH1 0x0 DUP8 DUP8 DUP6 DUP2 DUP2 LT PUSH2 0x11FD JUMPI PUSH2 0x11FD PUSH2 0x1864 JUMP JUMPDEST SWAP1 POP PUSH1 0x20 MUL ADD PUSH1 0x20 DUP2 ADD SWAP1 PUSH2 0x1212 SWAP2 SWAP1 PUSH2 0x160E JUMP JUMPDEST PUSH1 0x1 PUSH1 0x1 PUSH1 0xA0 SHL SUB AND PUSH1 0x1 PUSH1 0x1 PUSH1 0xA0 SHL SUB AND DUP2 MSTORE PUSH1 0x20 ADD SWAP1 DUP2 MSTORE PUSH1 0x20 ADD PUSH1 0x0 KECCAK256 SLOAD SWAP1 POP DUP4 DUP4 DUP4 DUP2 DUP2 LT PUSH2 0x1247 JUMPI PUSH2 0x1247 PUSH2 0x1864 JUMP JUMPDEST SWAP1 POP PUSH1 0x20 MUL ADD CALLDATALOAD PUSH1 0x6 PUSH1 0x0 DUP9 DUP9 DUP7 DUP2 DUP2 LT PUSH2 0x1264 JUMPI PUSH2 0x1264 PUSH2 0x1864 JUMP JUMPDEST SWAP1 POP PUSH1 0x20 MUL ADD PUSH1 0x20 DUP2 ADD SWAP1 PUSH2 0x1279 SWAP2 SWAP1 PUSH2 0x160E JUMP JUMPDEST PUSH1 0x1 PUSH1 0x1 PUSH1 0xA0 SHL SUB AND PUSH1 0x1 PUSH1 0x1 PUSH1 0xA0 SHL SUB AND DUP2 MSTORE PUSH1 0x20 ADD SWAP1 DUP2 MSTORE PUSH1 0x20 ADD PUSH1 0x0 KECCAK256 DUP2 SWAP1 SSTORE POP PUSH1 0x1 PUSH1 0x7 PUSH1 0x0 DUP9 DUP9 DUP7 DUP2 DUP2 LT PUSH2 0x12B5 JUMPI PUSH2 0x12B5 PUSH2 0x1864 JUMP JUMPDEST SWAP1 POP PUSH1 0x20 MUL ADD PUSH1 0x20 DUP2 ADD SWAP1 PUSH2 0x12CA SWAP2 SWAP1 PUSH2 0x160E JUMP JUMPDEST PUSH1 0x1 PUSH1 0x1 PUSH1 0xA0 SHL SUB AND DUP2 MSTORE PUSH1 0x20 DUP2 ADD SWAP2 SWAP1 SWAP2 MSTORE PUSH1 0x40 ADD PUSH1 0x0 KECCAK256 DUP1 SLOAD PUSH1 0xFF NOT AND SWAP2 ISZERO ISZERO SWAP2 SWAP1 SWAP2 OR SWAP1 SSTORE DUP6 DUP6 DUP4 DUP2 DUP2 LT PUSH2 0x1304 JUMPI PUSH2 0x1304 PUSH2 0x1864 JUMP JUMPDEST SWAP1 POP PUSH1 0x20 MUL ADD PUSH1 0x20 DUP2 ADD SWAP1 PUSH2 0x1319 SWAP2 SWAP1 PUSH2 0x160E JUMP JUMPDEST PUSH1 0x1 PUSH1 0x1 PUSH1 0xA0 SHL SUB AND PUSH32 0x5FE83DA06836532AA42F928FE690751E055C28DAFB29FD9081EDBB43C931E8CD DUP3 DUP7 DUP7 DUP7 DUP2 DUP2 LT PUSH2 0x1356 JUMPI PUSH2 0x1356 PUSH2 0x1864 JUMP JUMPDEST SWAP1 POP PUSH1 0x20 MUL ADD CALLDATALOAD PUSH1 0x40 MLOAD PUSH2 0x1374 SWAP3 SWAP2 SWAP1 SWAP2 DUP3 MSTORE PUSH1 0x20 DUP3 ADD MSTORE PUSH1 0x40 ADD SWAP1 JUMP JUMPDEST PUSH1 0x40 MLOAD DUP1 SWAP2 SUB SWAP1 LOG2 POP DUP1 PUSH2 0x1387 DUP2 PUSH2 0x1890 JUMP JUMPDEST SWAP2 POP POP PUSH2 0x11A2 JUMP JUMPDEST POP POP POP POP POP JUMP JUMPDEST PUSH1 0x0 SLOAD PUSH1 0x1 PUSH1 0x1 PUSH1 0xA0 SHL SUB AND CALLER EQ PUSH2 0x687 JUMPI PUSH1 0x40 MLOAD PUSH4 0x118CDAA7 PUSH1 0xE0 SHL DUP2 MSTORE CALLER PUSH1 0x4 DUP3 ADD MSTORE PUSH1 0x24 ADD PUSH2 0x808 JUMP JUMPDEST PUSH2 0x13CB PUSH2 0x150E JUMP JUMPDEST PUSH1 0x3 DUP1 SLOAD PUSH1 0xFF NOT AND SWAP1 SSTORE PUSH32 0x5DB9EE0A495BF2E6FF9C91A7834C1BA4FDD244A5E8AA4E537BD38AEAE4B073AA CALLER JUMPDEST PUSH1 0x40 MLOAD PUSH1 0x1 PUSH1 0x1 PUSH1 0xA0 SHL SUB SWAP1 SWAP2 AND DUP2 MSTORE PUSH1 0x20 ADD PUSH1 0x40 MLOAD DUP1 SWAP2 SUB SWAP1 LOG1 JUMP JUMPDEST PUSH1 0x1 DUP1 SLOAD PUSH1 0x1 PUSH1 0x1 PUSH1 0xA0 SHL SUB NOT AND SWAP1 SSTORE PUSH2 0x81A DUP2 PUSH2 0x1531 JUMP JUMPDEST PUSH2 0x1436 PUSH2 0x1493 JUMP JUMPDEST PUSH1 0x3 DUP1 SLOAD PUSH1 0xFF NOT AND PUSH1 0x1 OR SWAP1 SSTORE PUSH32 0x62E78CEA01BEE320CD4E420270B5EA74000D11B0C9F74754EBDBFC544B05A258 PUSH2 0x13F8 CALLER SWAP1 JUMP JUMPDEST PUSH1 0x2 DUP1 SLOAD SUB PUSH2 0x148D JUMPI PUSH1 0x40 MLOAD PUSH4 0x3EE5AEB5 PUSH1 0xE0 SHL DUP2 MSTORE PUSH1 0x4 ADD PUSH1 0x40 MLOAD DUP1 SWAP2 SUB SWAP1 REVERT JUMPDEST PUSH1 0x2 DUP1 SSTORE JUMP JUMPDEST PUSH1 0x3 SLOAD PUSH1 0xFF AND ISZERO PUSH2 0x687 JUMPI PUSH1 0x40 MLOAD PUSH4 0xD93C0665 PUSH1 0xE0 SHL DUP2 MSTORE PUSH1 0x4 ADD PUSH1 0x40 MLOAD DUP1 SWAP2 SUB SWAP1 REVERT JUMPDEST PUSH1 0x40 DUP1 MLOAD PUSH1 0x1 PUSH1 0x1 PUSH1 0xA0 SHL SUB DUP5 AND PUSH1 0x24 DUP3 ADD MSTORE PUSH1 0x44 DUP1 DUP3 ADD DUP5 SWAP1 MSTORE DUP3 MLOAD DUP1 DUP4 SUB SWAP1 SWAP2 ADD DUP2 MSTORE PUSH1 0x64 SWAP1 SWAP2 ADD SWAP1 SWAP2 MSTORE PUSH1 0x20 DUP2 ADD DUP1 MLOAD PUSH1 0x1 PUSH1 0x1 PUSH1 0xE0 SHL SUB AND PUSH4 0xA9059CBB PUSH1 0xE0 SHL OR SWAP1 MSTORE PUSH2 0x1509 SWAP1 DUP5 SWAP1 PUSH2 0x1581 JUMP JUMPDEST POP POP POP JUMP JUMPDEST PUSH1 0x3 SLOAD PUSH1 0xFF AND PUSH2 0x687 JUMPI PUSH1 0x40 MLOAD PUSH4 0x8DFC202B PUSH1 0xE0 SHL DUP2 MSTORE PUSH1 0x4 ADD PUSH1 0x40 MLOAD DUP1 SWAP2 SUB SWAP1 REVERT JUMPDEST PUSH1 0x0 DUP1 SLOAD PUSH1 0x1 PUSH1 0x1 PUSH1 0xA0 SHL SUB DUP4 DUP2 AND PUSH1 0x1 PUSH1 0x1 PUSH1 0xA0 SHL SUB NOT DUP4 AND DUP2 OR DUP5 SSTORE PUSH1 0x40 MLOAD SWAP2 SWAP1 SWAP3 AND SWAP3 DUP4 SWAP2 PUSH32 0x8BE0079C531659141344CD1FD0A4F28419497F9722A3DAAFE3B4186F6B6457E0 SWAP2 SWAP1 LOG3 POP POP JUMP JUMPDEST PUSH1 0x0 DUP1 PUSH1 0x20 PUSH1 0x0 DUP5 MLOAD PUSH1 0x20 DUP7 ADD PUSH1 0x0 DUP9 GAS CALL DUP1 PUSH2 0x15A4 JUMPI PUSH1 0x40 MLOAD RETURNDATASIZE PUSH1 0x0 DUP3 RETURNDATACOPY RETURNDATASIZE DUP2 REVERT JUMPDEST POP POP PUSH1 0x0 MLOAD RETURNDATASIZE SWAP2 POP DUP2 ISZERO PUSH2 0x15BC JUMPI DUP1 PUSH1 0x1 EQ ISZERO PUSH2 0x15C9 JUMP JUMPDEST PUSH1 0x1 PUSH1 0x1 PUSH1 0xA0 SHL SUB DUP5 AND EXTCODESIZE ISZERO JUMPDEST ISZERO PUSH2 0x7BC JUMPI PUSH1 0x40 MLOAD PUSH4 0x5274AFE7 PUSH1 0xE0 SHL DUP2 MSTORE PUSH1 0x1 PUSH1 0x1 PUSH1 0xA0 SHL SUB DUP6 AND PUSH1 0x4 DUP3 ADD MSTORE PUSH1 0x24 ADD PUSH2 0x808 JUMP JUMPDEST DUP1 CALLDATALOAD PUSH1 0x1 PUSH1 0x1 PUSH1 0xA0 SHL SUB DUP2 AND DUP2 EQ PUSH2 0x1609 JUMPI PUSH1 0x0 DUP1 REVERT JUMPDEST SWAP2 SWAP1 POP JUMP JUMPDEST PUSH1 0x0 PUSH1 0x20 DUP3 DUP5 SUB SLT ISZERO PUSH2 0x1620 JUMPI PUSH1 0x0 DUP1 REVERT JUMPDEST PUSH2 0x1629 DUP3 PUSH2 0x15F2 JUMP JUMPDEST SWAP4 SWAP3 POP POP POP JUMP JUMPDEST DUP1 CALLDATALOAD DUP1 ISZERO ISZERO DUP2 EQ PUSH2 0x1609 JUMPI PUSH1 0x0 DUP1 REVERT JUMPDEST PUSH1 0x0 DUP1 PUSH1 0x40 DUP4 DUP6 SUB SLT ISZERO PUSH2 0x1653 JUMPI PUSH1 0x0 DUP1 REVERT JUMPDEST PUSH2 0x165C DUP4 PUSH2 0x15F2 JUMP JUMPDEST SWAP2 POP PUSH2 0x166A PUSH1 0x20 DUP5 ADD PUSH2 0x1630 JUMP JUMPDEST SWAP1 POP SWAP3 POP SWAP3 SWAP1 POP JUMP JUMPDEST PUSH1 0x0 PUSH1 0x20 DUP3 DUP5 SUB SLT ISZERO PUSH2 0x1685 JUMPI PUSH1 0x0 DUP1 REVERT JUMPDEST PUSH2 0x1629 DUP3 PUSH2 0x1630 JUMP JUMPDEST PUSH1 0x0 DUP1 DUP4 PUSH1 0x1F DUP5 ADD SLT PUSH2 0x16A0 JUMPI PUSH1 0x0 DUP1 REVERT JUMPDEST POP DUP2 CALLDATALOAD PUSH8 0xFFFFFFFFFFFFFFFF DUP2 GT ISZERO PUSH2 0x16B8 JUMPI PUSH1 0x0 DUP1 REVERT JUMPDEST PUSH1 0x20 DUP4 ADD SWAP2 POP DUP4 PUSH1 0x20 DUP3 PUSH1 0x5 SHL DUP6 ADD ADD GT ISZERO PUSH2 0x16D3 JUMPI PUSH1 0x0 DUP1 REVERT JUMPDEST SWAP3 POP SWAP3 SWAP1 POP JUMP JUMPDEST PUSH1 0x0 DUP1 PUSH1 0x0 PUSH1 0x40 DUP5 DUP7 SUB SLT ISZERO PUSH2 0x16EF JUMPI PUSH1 0x0 DUP1 REVERT JUMPDEST DUP4 CALLDATALOAD PUSH8 0xFFFFFFFFFFFFFFFF DUP2 GT ISZERO PUSH2 0x1706 JUMPI PUSH1 0x0 DUP1 REVERT JUMPDEST PUSH2 0x1712 DUP7 DUP3 DUP8 ADD PUSH2 0x168E JUMP JUMPDEST SWAP1 SWAP5 POP SWAP3 POP PUSH2 0x1725 SWAP1 POP PUSH1 0x20 DUP6 ADD PUSH2 0x1630 JUMP JUMPDEST SWAP1 POP SWAP3 POP SWAP3 POP SWAP3 JUMP JUMPDEST PUSH1 0x0 DUP1 PUSH1 0x0 DUP1 PUSH1 0x80 DUP6 DUP8 SUB SLT ISZERO PUSH2 0x1744 JUMPI PUSH1 0x0 DUP1 REVERT JUMPDEST PUSH2 0x174D DUP6 PUSH2 0x15F2 JUMP JUMPDEST SWAP4 POP PUSH2 0x175B PUSH1 0x20 DUP7 ADD PUSH2 0x15F2 JUMP JUMPDEST SWAP3 POP PUSH2 0x1769 PUSH1 0x40 DUP7 ADD PUSH2 0x15F2 JUMP JUMPDEST SWAP4 SWAP7 SWAP3 SWAP6 POP SWAP3 SWAP4 PUSH1 0x60 ADD CALLDATALOAD SWAP3 POP POP JUMP JUMPDEST PUSH1 0x0 DUP1 PUSH1 0x40 DUP4 DUP6 SUB SLT ISZERO PUSH2 0x178C JUMPI PUSH1 0x0 DUP1 REVERT JUMPDEST PUSH2 0x1795 DUP4 PUSH2 0x15F2 JUMP JUMPDEST SWAP5 PUSH1 0x20 SWAP4 SWAP1 SWAP4 ADD CALLDATALOAD SWAP4 POP POP POP JUMP JUMPDEST PUSH1 0x0 PUSH1 0x20 DUP3 DUP5 SUB SLT ISZERO PUSH2 0x17B5 JUMPI PUSH1 0x0 DUP1 REVERT JUMPDEST POP CALLDATALOAD SWAP2 SWAP1 POP JUMP JUMPDEST PUSH1 0x0 DUP1 PUSH1 0x0 PUSH1 0x60 DUP5 DUP7 SUB SLT ISZERO PUSH2 0x17D1 JUMPI PUSH1 0x0 DUP1 REVERT JUMPDEST PUSH2 0x17DA DUP5 PUSH2 0x15F2 JUMP JUMPDEST SWAP3 POP PUSH2 0x17E8 PUSH1 0x20 DUP6 ADD PUSH2 0x15F2 JUMP JUMPDEST SWAP2 POP PUSH1 0x40 DUP5 ADD CALLDATALOAD SWAP1 POP SWAP3 POP SWAP3 POP SWAP3 JUMP JUMPDEST PUSH1 0x0 DUP1 PUSH1 0x0 DUP1 PUSH1 0x40 DUP6 DUP8 SUB SLT ISZERO PUSH2 0x180E JUMPI PUSH1 0x0 DUP1 REVERT JUMPDEST DUP5 CALLDATALOAD PUSH8 0xFFFFFFFFFFFFFFFF DUP1 DUP3 GT ISZERO PUSH2 0x1826 JUMPI PUSH1 0x0 DUP1 REVERT JUMPDEST PUSH2 0x1832 DUP9 DUP4 DUP10 ADD PUSH2 0x168E JUMP JUMPDEST SWAP1 SWAP7 POP SWAP5 POP PUSH1 0x20 DUP8 ADD CALLDATALOAD SWAP2 POP DUP1 DUP3 GT ISZERO PUSH2 0x184B JUMPI PUSH1 0x0 DUP1 REVERT JUMPDEST POP PUSH2 0x1858 DUP8 DUP3 DUP9 ADD PUSH2 0x168E JUMP JUMPDEST SWAP6 SWAP9 SWAP5 SWAP8 POP SWAP6 POP POP POP POP JUMP JUMPDEST PUSH4 0x4E487B71 PUSH1 0xE0 SHL PUSH1 0x0 MSTORE PUSH1 0x32 PUSH1 0x4 MSTORE PUSH1 0x24 PUSH1 0x0 REVERT JUMPDEST PUSH4 0x4E487B71 PUSH1 0xE0 SHL PUSH1 0x0 MSTORE PUSH1 0x11 PUSH1 0x4 MSTORE PUSH1 0x24 PUSH1 0x0 REVERT JUMPDEST PUSH1 0x0 PUSH1 0x1 DUP3 ADD PUSH2 0x18A2 JUMPI PUSH2 0x18A2 PUSH2 0x187A JUMP JUMPDEST POP PUSH1 0x1 ADD SWAP1 JUMP JUMPDEST PUSH1 0x0 DUP2 PUSH2 0x18B8 JUMPI PUSH2 0x18B8 PUSH2 0x187A JUMP JUMPDEST POP PUSH1 0x0 NOT ADD SWAP1 JUMP JUMPDEST PUSH1 0x0 PUSH1 0x20 DUP3 DUP5 SUB SLT ISZERO PUSH2 0x18D2 JUMPI PUSH1 0x0 DUP1 REVERT JUMPDEST POP MLOAD SWAP2 SWAP1 POP JUMP JUMPDEST DUP1 DUP3 MUL DUP2 ISZERO DUP3 DUP3 DIV DUP5 EQ OR PUSH2 0x18F0 JUMPI PUSH2 0x18F0 PUSH2 0x187A JUMP JUMPDEST SWAP3 SWAP2 POP POP JUMP JUMPDEST PUSH1 0x0 DUP3 PUSH2 0x1913 JUMPI PUSH4 0x4E487B71 PUSH1 0xE0 SHL PUSH1 0x0 MSTORE PUSH1 0x12 PUSH1 0x4 MSTORE PUSH1 0x24 PUSH1 0x0 REVERT JUMPDEST POP DIV SWAP1 JUMP JUMPDEST DUP2 DUP2 SUB DUP2 DUP2 GT ISZERO PUSH2 0x18F0 JUMPI PUSH2 0x18F0 PUSH2 0x187A JUMP JUMPDEST DUP1 DUP3 ADD DUP1 DUP3 GT ISZERO PUSH2 0x18F0 JUMPI PUSH2 0x18F0 PUSH2 0x187A JUMP INVALID LOG2 PUSH5 0x6970667358 0x22 SLT KECCAK256 STOP 0xDD JUMPDEST BALANCE SHR 0x5D 0xC 0xF8 SLT 0xE2 0x23 CREATE 0xB6 0xC3 SWAP6 DUP9 0xF8 ADDMOD SWAP15 PUSH7 0x97317C99DD4715 PUSH24 0x84F5153764736F6C63430008140033000000000000000000 "},"methodIdentifiers":{"MAX_FEE_BPS()":"d55be8c6","MIN_AMOUNT()":"ddbcb5fa","acceptOwnership()":"79ba5097","authorizedFacilitators(address)":"c57beae4","calculateSplit(address,uint256)":"df15f1ac","collectedFees(address)":"1cead9a7","defaultFeeBps()":"bcae25a4","emergencyWithdraw(address,uint256)":"95ccea67","emergencyWithdrawTo(address,address,uint256)":"f2f7c06a","facilitatorCount()":"888a42d3","getStats()":"c59d4847","getTokenFee(address)":"252154fa","getTokenStats(address)":"ca88d5c5","isFacilitator(address)":"33460540","maxSettlementAmount()":"70445126","owner()":"8da5cb5b","pause()":"8456cb59","paused()":"5c975abb","pendingOwner()":"e30c3978","renounceOwnership()":"715018a6","setDefaultFee(uint256)":"c93a6c84","setFacilitator(address,bool)":"8f57e97d","setMaxSettlement(uint256)":"bfd9182f","setTokenFee(address,uint256)":"b1014cbb","setTokenFeesBatch(address[],uint256[])":"f3abba10","setTokenWhitelisted(address,bool)":"3a9c5712","setTokensWhitelistedBatch(address[],bool)":"5e3b973e","setTreasury(address)":"f0f44260","setWhitelistMode(bool)":"425bc1e9","splitPayment(address,address,address,uint256)":"94cc6d72","tokenConfigured(address)":"80fc2e15","tokenFeeBps(address)":"79f6351b","tokenWhitelisted(address)":"ff8507e8","totalSettlements()":"88dae6a8","totalVolumeByToken(address)":"38caed9f","transferOwnership(address)":"f2fde38b","treasury()":"61d027b3","unpause()":"3f4ba83a","whitelistMode()":"70c757ec"}}}}}