{"contracts/X402FeeSplitter.sol":{"X402FeeSplitter":{"abi":[{"inputs":[{"internalType":"address","name":"_treasury","type":"address"},{"internalType":"uint256","name":"_defaultFeeBps","type":"uint256"},{"internalType":"address","name":"_initialFacilitator","type":"address"}],"stateMutability":"nonpayable","type":"constructor"},{"inputs":[],"name":"EnforcedPause","type":"error"},{"inputs":[],"name":"ExpectedPause","type":"error"},{"inputs":[],"name":"FeeTooHigh","type":"error"},{"inputs":[],"name":"InsufficientBalance","type":"error"},{"inputs":[],"name":"InvalidAmount","type":"error"},{"inputs":[],"name":"InvalidRecipient","type":"error"},{"inputs":[],"name":"InvalidToken","type":"error"},{"inputs":[],"name":"InvalidTreasury","type":"error"},{"inputs":[],"name":"LengthMismatch","type":"error"},{"inputs":[],"name":"NotAuthorizedFacilitator","type":"error"},{"inputs":[{"internalType":"address","name":"owner","type":"address"}],"name":"OwnableInvalidOwner","type":"error"},{"inputs":[{"internalType":"address","name":"account","type":"address"}],"name":"OwnableUnauthorizedAccount","type":"error"},{"inputs":[],"name":"ReentrancyGuardReentrantCall","type":"error"},{"inputs":[{"internalType":"address","name":"token","type":"address"}],"name":"SafeERC20FailedOperation","type":"error"},{"inputs":[],"name":"TokenNotWhitelisted","type":"error"},{"anonymous":false,"inputs":[{"indexed":false,"internalType":"uint256","name":"oldFeeBps","type":"uint256"},{"indexed":false,"internalType":"uint256","name":"newFeeBps","type":"uint256"}],"name":"DefaultFeeUpdated","type":"event"},{"anonymous":false,"inputs":[{"indexed":true,"internalType":"address","name":"token","type":"address"},{"indexed":true,"internalType":"address","name":"to","type":"address"},{"indexed":false,"internalType":"uint256","name":"amount","type":"uint256"}],"name":"EmergencyWithdraw","type":"event"},{"anonymous":false,"inputs":[{"indexed":true,"internalType":"address","name":"facilitator","type":"address"},{"indexed":false,"internalType":"bool","name":"authorized","type":"bool"}],"name":"FacilitatorUpdated","type":"event"},{"anonymous":false,"inputs":[{"indexed":true,"internalType":"address","name":"previousOwner","type":"address"},{"indexed":true,"internalType":"address","name":"newOwner","type":"address"}],"name":"OwnershipTransferStarted","type":"event"},{"anonymous":false,"inputs":[{"indexed":true,"internalType":"address","name":"previousOwner","type":"address"},{"indexed":true,"internalType":"address","name":"newOwner","type":"address"}],"name":"OwnershipTransferred","type":"event"},{"anonymous":false,"inputs":[{"indexed":false,"internalType":"address","name":"account","type":"address"}],"name":"Paused","type":"event"},{"anonymous":false,"inputs":[{"indexed":true,"internalType":"address","name":"token","type":"address"},{"indexed":true,"internalType":"address","name":"payer","type":"address"},{"indexed":true,"internalType":"address","name":"recipient","type":"address"},{"indexed":false,"internalType":"uint256","name":"grossAmount","type":"uint256"},{"indexed":false,"internalType":"uint256","name":"netAmount","type":"uint256"},{"indexed":false,"internalType":"uint256","name":"fee","type":"uint256"},{"indexed":false,"internalType":"address","name":"facilitator","type":"address"}],"name":"PaymentSplit","type":"event"},{"anonymous":false,"inputs":[{"indexed":true,"internalType":"address","name":"token","type":"address"},{"indexed":false,"internalType":"uint256","name":"oldFeeBps","type":"uint256"},{"indexed":false,"internalType":"uint256","name":"newFeeBps","type":"uint256"}],"name":"TokenFeeUpdated","type":"event"},{"anonymous":false,"inputs":[{"indexed":true,"internalType":"address","name":"token","type":"address"},{"indexed":false,"internalType":"bool","name":"whitelisted","type":"bool"}],"name":"TokenWhitelistUpdated","type":"event"},{"anonymous":false,"inputs":[{"indexed":true,"internalType":"address","name":"oldTreasury","type":"address"},{"indexed":true,"internalType":"address","name":"newTreasury","type":"address"}],"name":"TreasuryUpdated","type":"event"},{"anonymous":false,"inputs":[{"indexed":false,"internalType":"address","name":"account","type":"address"}],"name":"Unpaused","type":"event"},{"anonymous":false,"inputs":[{"indexed":false,"internalType":"bool","name":"enabled","type":"bool"}],"name":"WhitelistModeUpdated","type":"event"},{"inputs":[],"name":"MAX_FEE_BPS","outputs":[{"internalType":"uint256","name":"","type":"uint256"}],"stateMutability":"view","type":"function"},{"inputs":[],"name":"MIN_AMOUNT","outputs":[{"internalType":"uint256","name":"","type":"uint256"}],"stateMutability":"view","type":"function"},{"inputs":[],"name":"acceptOwnership","outputs":[],"stateMutability":"nonpayable","type":"function"},{"inputs":[{"internalType":"address","name":"","type":"address"}],"name":"authorizedFacilitators","outputs":[{"internalType":"bool","name":"","type":"bool"}],"stateMutability":"view","type":"function"},{"inputs":[{"internalType":"address","name":"token","type":"address"},{"internalType":"uint256","name":"amount","type":"uint256"}],"name":"calculateSplit","outputs":[{"internalType":"uint256","name":"netAmount","type":"uint256"},{"internalType":"uint256","name":"feeAmount","type":"uint256"}],"stateMutability":"view","type":"function"},{"inputs":[{"internalType":"address","name":"","type":"address"}],"name":"collectedFees","outputs":[{"internalType":"uint256","name":"","type":"uint256"}],"stateMutability":"view","type":"function"},{"inputs":[],"name":"defaultFeeBps","outputs":[{"internalType":"uint256","name":"","type":"uint256"}],"stateMutability":"view","type":"function"},{"inputs":[{"internalType":"address","name":"token","type":"address"},{"internalType":"uint256","name":"amount","type":"uint256"}],"name":"emergencyWithdraw","outputs":[],"stateMutability":"nonpayable","type":"function"},{"inputs":[{"internalType":"address","name":"token","type":"address"},{"internalType":"address","name":"to","type":"address"},{"internalType":"uint256","name":"amount","type":"uint256"}],"name":"emergencyWithdrawTo","outputs":[],"stateMutability":"nonpayable","type":"function"},{"inputs":[],"name":"facilitatorCount","outputs":[{"internalType":"uint256","name":"","type":"uint256"}],"stateMutability":"view","type":"function"},{"inputs":[],"name":"getStats","outputs":[{"internalType":"uint256","name":"settlements","type":"uint256"},{"internalType":"address","name":"treasuryAddr","type":"address"},{"internalType":"uint256","name":"defaultFee","type":"uint256"},{"internalType":"uint256","name":"numFacilitators","type":"uint256"},{"internalType":"bool","name":"isPaused","type":"bool"},{"internalType":"bool","name":"isWhitelistMode","type":"bool"}],"stateMutability":"view","type":"function"},{"inputs":[{"internalType":"address","name":"token","type":"address"}],"name":"getTokenFee","outputs":[{"internalType":"uint256","name":"","type":"uint256"}],"stateMutability":"view","type":"function"},{"inputs":[{"internalType":"address","name":"token","type":"address"}],"name":"getTokenStats","outputs":[{"internalType":"uint256","name":"feeBps","type":"uint256"},{"internalType":"bool","name":"configured","type":"bool"},{"internalType":"bool","name":"whitelisted","type":"bool"},{"internalType":"uint256","name":"feesCollected","type":"uint256"},{"internalType":"uint256","name":"volumeSettled","type":"uint256"}],"stateMutability":"view","type":"function"},{"inputs":[{"internalType":"address","name":"facilitator","type":"address"}],"name":"isFacilitator","outputs":[{"internalType":"bool","name":"","type":"bool"}],"stateMutability":"view","type":"function"},{"inputs":[],"name":"owner","outputs":[{"internalType":"address","name":"","type":"address"}],"stateMutability":"view","type":"function"},{"inputs":[],"name":"pause","outputs":[],"stateMutability":"nonpayable","type":"function"},{"inputs":[],"name":"paused","outputs":[{"internalType":"bool","name":"","type":"bool"}],"stateMutability":"view","type":"function"},{"inputs":[],"name":"pendingOwner","outputs":[{"internalType":"address","name":"","type":"address"}],"stateMutability":"view","type":"function"},{"inputs":[],"name":"renounceOwnership","outputs":[],"stateMutability":"nonpayable","type":"function"},{"inputs":[{"internalType":"uint256","name":"feeBps","type":"uint256"}],"name":"setDefaultFee","outputs":[],"stateMutability":"nonpayable","type":"function"},{"inputs":[{"internalType":"address","name":"facilitator","type":"address"},{"internalType":"bool","name":"authorized","type":"bool"}],"name":"setFacilitator","outputs":[],"stateMutability":"nonpayable","type":"function"},{"inputs":[{"internalType":"address","name":"token","type":"address"},{"internalType":"uint256","name":"feeBps","type":"uint256"}],"name":"setTokenFee","outputs":[],"stateMutability":"nonpayable","type":"function"},{"inputs":[{"internalType":"address[]","name":"tokens","type":"address[]"},{"internalType":"uint256[]","name":"feesBps","type":"uint256[]"}],"name":"setTokenFeesBatch","outputs":[],"stateMutability":"nonpayable","type":"function"},{"inputs":[{"internalType":"address","name":"token","type":"address"},{"internalType":"bool","name":"whitelisted","type":"bool"}],"name":"setTokenWhitelisted","outputs":[],"stateMutability":"nonpayable","type":"function"},{"inputs":[{"internalType":"address[]","name":"tokens","type":"address[]"},{"internalType":"bool","name":"whitelisted","type":"bool"}],"name":"setTokensWhitelistedBatch","outputs":[],"stateMutability":"nonpayable","type":"function"},{"inputs":[{"internalType":"address","name":"_treasury","type":"address"}],"name":"setTreasury","outputs":[],"stateMutability":"nonpayable","type":"function"},{"inputs":[{"internalType":"bool","name":"enabled","type":"bool"}],"name":"setWhitelistMode","outputs":[],"stateMutability":"nonpayable","type":"function"},{"inputs":[{"internalType":"address","name":"token","type":"address"},{"internalType":"address","name":"payer","type":"address"},{"internalType":"address","name":"recipient","type":"address"},{"internalType":"uint256","name":"amount","type":"uint256"}],"name":"splitPayment","outputs":[{"internalType":"uint256","name":"netAmount","type":"uint256"},{"internalType":"uint256","name":"feeAmount","type":"uint256"}],"stateMutability":"nonpayable","type":"function"},{"inputs":[{"internalType":"address","name":"","type":"address"}],"name":"tokenConfigured","outputs":[{"internalType":"bool","name":"","type":"bool"}],"stateMutability":"view","type":"function"},{"inputs":[{"internalType":"address","name":"","type":"address"}],"name":"tokenFeeBps","outputs":[{"internalType":"uint256","name":"","type":"uint256"}],"stateMutability":"view","type":"function"},{"inputs":[{"internalType":"address","name":"","type":"address"}],"name":"tokenWhitelisted","outputs":[{"internalType":"bool","name":"","type":"bool"}],"stateMutability":"view","type":"function"},{"inputs":[],"name":"totalSettlements","outputs":[{"internalType":"uint256","name":"","type":"uint256"}],"stateMutability":"view","type":"function"},{"inputs":[{"internalType":"address","name":"","type":"address"}],"name":"totalVolumeByToken","outputs":[{"internalType":"uint256","name":"","type":"uint256"}],"stateMutability":"view","type":"function"},{"inputs":[{"internalType":"address","name":"newOwner","type":"address"}],"name":"transferOwnership","outputs":[],"stateMutability":"nonpayable","type":"function"},{"inputs":[],"name":"treasury","outputs":[{"internalType":"address","name":"","type":"address"}],"stateMutability":"view","type":"function"},{"inputs":[],"name":"unpause","outputs":[],"stateMutability":"nonpayable","type":"function"},{"inputs":[],"name":"whitelistMode","outputs":[{"internalType":"bool","name":"","type":"bool"}],"stateMutability":"view","type":"function"}],"evm":{"bytecode":{"linkReferences":{},"object":"60806040523480156200001157600080fd5b5060405162001b1e38038062001b1e8339810160408190526200003491620001e0565b33806200005b57604051631e4fbdf760e01b81526000600482015260240160405180910390fd5b620000668162000155565b5060016002556001600160a01b03831662000094576040516302979eb960e31b815260040160405180910390fd5b6103e8821115620000b85760405163cd4e616760e01b815260040160405180910390fd5b600380546001600160a01b0380861661010002610100600160a81b03199092169190911790915560068390558116156200014c576001600160a01b038116600081815260076020908152604091829020805460ff19166001908117909155600881905591519182527f23b563b53629727de17c5cec4b391a63440584fdaf0d888a95bbc671da2c62e1910160405180910390a25b50505062000221565b600180546001600160a01b0319169055620001708162000173565b50565b600080546001600160a01b038381166001600160a01b0319831681178455604051919092169283917f8be0079c531659141344cd1fd0a4f28419497f9722a3daafe3b4186f6b6457e09190a35050565b80516001600160a01b0381168114620001db57600080fd5b919050565b600080600060608486031215620001f657600080fd5b6200020184620001c3565b9250602084015191506200021860408501620001c3565b90509250925092565b6118ed80620002316000396000f3fe608060405234801561001057600080fd5b50600436106102275760003560e01c80638da5cb5b11610130578063ca88d5c5116100b8578063f0f442601161007c578063f0f442601461052f578063f2f7c06a14610542578063f2fde38b14610555578063f3abba1014610568578063ff8507e81461057b57600080fd5b8063ca88d5c5146104b8578063d55be8c6146104fa578063ddbcb5fa14610503578063df15f1ac1461050b578063e30c39781461051e57600080fd5b8063b1014cbb116100ff578063b1014cbb14610425578063bcae25a414610438578063c57beae414610441578063c59d484714610464578063c93a6c84146104a557600080fd5b80638da5cb5b146103c65780638f57e97d146103d757806394cc6d72146103ea57806395ccea671461041257600080fd5b806361d027b3116101b357806379f6351b1161018257806379f6351b1461036957806380fc2e15146103895780638456cb59146103ac578063888a42d3146103b457806388dae6a8146103bd57600080fd5b806361d027b31461031c57806370c757ec1461034c578063715018a61461035957806379ba50971461036157600080fd5b80633a9c5712116101fa5780633a9c5712146102ce5780633f4ba83a146102e3578063425bc1e9146102eb5780635c975abb146102fe5780635e3b973e1461030957600080fd5b80631cead9a71461022c578063252154fa1461025f578063334605401461027257806338caed9f146102ae575b600080fd5b61024c61023a366004611587565b60096020526000908152604090205481565b6040519081526020015b60405180910390f35b61024c61026d366004611587565b61059e565b61029e610280366004611587565b6001600160a01b031660009081526007602052604090205460ff1690565b6040519015158152602001610256565b61024c6102bc366004611587565b600b6020526000908152604090205481565b6102e16102dc3660046115b9565b6105e3565b005b6102e161064a565b6102e16102f93660046115ec565b61065c565b60035460ff1661029e565b6102e1610317366004611653565b6106ab565b6003546103349061010090046001600160a01b031681565b6040516001600160a01b039091168152602001610256565b600c5461029e9060ff1681565b6102e1610795565b6102e16107a7565b61024c610377366004611587565b60046020526000908152604090205481565b61029e610397366004611587565b60056020526000908152604090205460ff1681565b6102e16107f0565b61024c60085481565b61024c600a5481565b6000546001600160a01b0316610334565b6102e16103e53660046115b9565b610800565b6103fd6103f83660046116a7565b610902565b60408051928352602083019190915201610256565b6102e16104203660046116f2565b610beb565b6102e16104333660046116f2565b610cea565b61024c60065481565b61029e61044f366004611587565b60076020526000908152604090205460ff1681565b61046c610d7f565b604080519687526001600160a01b03909516602087015293850192909252606084015215156080830152151560a082015260c001610256565b6102e16104b336600461171c565b610dcd565b6104cb6104c6366004611587565b610e3d565b604051610256959493929190948552921515602085015290151560408401526060830152608082015260a00190565b61024c6103e881565b61024c600181565b6103fd6105193660046116f2565b610e9f565b6001546001600160a01b0316610334565b6102e161053d366004611587565b610edc565b6102e1610550366004611735565b610f65565b6102e1610563366004611587565b61107c565b6102e1610576366004611771565b6110ed565b61029e610589366004611587565b600d6020526000908152604090205460ff1681565b6001600160a01b03811660009081526005602052604081205460ff16156105db57506001600160a01b031660009081526004602052604090205490565b505060065490565b6105eb61130f565b6001600160a01b0382166000818152600d6020908152604091829020805460ff191685151590811790915591519182527f67821d5384bb02aab1ba91a477f89c9966cd30f475b02618bdc58712bca51275910160405180910390a25050565b61065261130f565b61065a61133c565b565b61066461130f565b600c805460ff19168215159081179091556040519081527f2d096e0ce298196d706256be0f2a6ef71011a475a3224558a3a71386da284e659060200160405180910390a150565b6106b361130f565b60005b8281101561078f5781600d60008686858181106106d5576106d56117dd565b90506020020160208101906106ea9190611587565b6001600160a01b031681526020810191909152604001600020805460ff1916911515919091179055838382818110610724576107246117dd565b90506020020160208101906107399190611587565b6001600160a01b03167f67821d5384bb02aab1ba91a477f89c9966cd30f475b02618bdc58712bca5127583604051610775911515815260200190565b60405180910390a28061078781611809565b9150506106b6565b50505050565b61079d61130f565b61065a600061138e565b60015433906001600160a01b031681146107e45760405163118cdaa760e01b81526001600160a01b03821660048201526024015b60405180910390fd5b6107ed8161138e565b50565b6107f861130f565b61065a6113a7565b61080861130f565b6001600160a01b03821661082f57604051634e46966960e11b815260040160405180910390fd5b6001600160a01b03821660009081526007602052604090205460ff168115158115150361085b57505050565b6001600160a01b0383166000908152600760205260409020805460ff191683158015919091179091556108a2576008805490600061089883611809565b91905055506108b8565b600880549060006108b283611822565b91905055505b826001600160a01b03167f23b563b53629727de17c5cec4b391a63440584fdaf0d888a95bbc671da2c62e1836040516108f5911515815260200190565b60405180910390a2505050565b60008061090d6113e4565b61091561140c565b3360009081526007602052604090205460ff1661094557604051632ab2132160e01b815260040160405180910390fd5b6001600160a01b03861661096c5760405163c1ab6dc160e01b815260040160405180910390fd5b6001600160a01b038416158061098a57506001600160a01b03841630145b156109a857604051634e46966960e11b815260040160405180910390fd5b60018310156109ca5760405163162908e360e11b815260040160405180910390fd5b600c5460ff1680156109f557506001600160a01b0386166000908152600d602052604090205460ff16155b15610a13576040516307c241ad60e51b815260040160405180910390fd5b6040516370a0823160e01b81523060048201526000906001600160a01b038816906370a0823190602401602060405180830381865afa158015610a5a573d6000803e3d6000fd5b505050506040513d601f19601f82011682018060405250810190610a7e9190611839565b905083811015610aa157604051631e9acf1760e31b815260040160405180910390fd5b6000610aac8861059e565b9050612710610abb8287611852565b610ac5919061186f565b9250610ad18386611891565b9350610ae76001600160a01b0389168786611430565b8215610b3a57600354610b0c906001600160a01b038a81169161010090041685611430565b6001600160a01b03881660009081526009602052604081208054859290610b349084906118a4565b90915550505b600a8054906000610b4a83611809565b90915550506001600160a01b0388166000908152600b602052604081208054879290610b779084906118a4565b909155505060408051868152602081018690529081018490523360608201526001600160a01b0380881691898216918b16907fb4774686571aea02ff343fa83c0e541c702f4ca498995ffbea473fea45f5a2529060800160405180910390a45050610be26001600255565b94509492505050565b610bf361130f565b6040516370a0823160e01b81523060048201526000906001600160a01b038416906370a0823190602401602060405180830381865afa158015610c3a573d6000803e3d6000fd5b505050506040513d601f19601f82011682018060405250810190610c5e9190611839565b90506000818311610c6f5782610c71565b815b600354909150610c93906001600160a01b038681169161010090041683611430565b6003546040516001600160a01b036101009092048216918616907ff24ef89f38eadc1bde50701ad6e4d6d11a2dc24f7cf834a486991f388332850490610cdc9085815260200190565b60405180910390a350505050565b610cf261130f565b6103e8811115610d155760405163cd4e616760e01b815260040160405180910390fd5b6001600160a01b03821660008181526004602090815260408083208054908690556005835292819020805460ff1916600117905580518381529182018590529192917f5fe83da06836532aa42f928fe690751e055c28dafb29fd9081edbb43c931e8cd91016108f5565b600080600080600080600a54600360019054906101000a90046001600160a01b0316600654600854610db360035460ff1690565b600c54949b939a509198509650945060ff90911692509050565b610dd561130f565b6103e8811115610df85760405163cd4e616760e01b815260040160405180910390fd5b600680549082905560408051828152602081018490527fac1f58cd233fc224bd53b979e04547b08f9e5da37a3fa94f2afa216dfba59230910160405180910390a15050565b6000806000806000610e4e8661059e565b6001600160a01b0396909616600090815260056020908152604080832054600d8352818420546009845282852054600b9094529190932054989960ff93841699939091169750909550909350915050565b6000806000610ead8561059e565b9050612710610ebc8286611852565b610ec6919061186f565b9150610ed28285611891565b9250509250929050565b610ee461130f565b6001600160a01b038116610f0b576040516302979eb960e31b815260040160405180910390fd5b600380546001600160a01b03838116610100818102610100600160a81b031985161790945560405193909204169182907f4ab5be82436d353e61ca18726e984e561f5c1cc7c6d38b29d2553c790434705a90600090a35050565b610f6d61130f565b6001600160a01b038216610f9457604051634e46966960e11b815260040160405180910390fd5b6040516370a0823160e01b81523060048201526000906001600160a01b038516906370a0823190602401602060405180830381865afa158015610fdb573d6000803e3d6000fd5b505050506040513d601f19601f82011682018060405250810190610fff9190611839565b905060008183116110105782611012565b815b90506110286001600160a01b0386168583611430565b836001600160a01b0316856001600160a01b03167ff24ef89f38eadc1bde50701ad6e4d6d11a2dc24f7cf834a486991f38833285048360405161106d91815260200190565b60405180910390a35050505050565b61108461130f565b600180546001600160a01b0383166001600160a01b031990911681179091556110b56000546001600160a01b031690565b6001600160a01b03167f38d16b8cac22d99fc7c124b9cd0de2d3fa1faef420bfe791d8c362d765e2270060405160405180910390a350565b6110f561130f565b828114611118576040516001621398b960e31b0319815260040160405180910390fd5b60005b83811015611308576103e8838383818110611138576111386117dd565b90506020020135111561115e5760405163cd4e616760e01b815260040160405180910390fd5b600060046000878785818110611176576111766117dd565b905060200201602081019061118b9190611587565b6001600160a01b03166001600160a01b031681526020019081526020016000205490508383838181106111c0576111c06117dd565b90506020020135600460008888868181106111dd576111dd6117dd565b90506020020160208101906111f29190611587565b6001600160a01b03166001600160a01b031681526020019081526020016000208190555060016005600088888681811061122e5761122e6117dd565b90506020020160208101906112439190611587565b6001600160a01b031681526020810191909152604001600020805460ff191691151591909117905585858381811061127d5761127d6117dd565b90506020020160208101906112929190611587565b6001600160a01b03167f5fe83da06836532aa42f928fe690751e055c28dafb29fd9081edbb43c931e8cd828686868181106112cf576112cf6117dd565b905060200201356040516112ed929190918252602082015260400190565b60405180910390a2508061130081611809565b91505061111b565b5050505050565b6000546001600160a01b0316331461065a5760405163118cdaa760e01b81523360048201526024016107db565b611344611487565b6003805460ff191690557f5db9ee0a495bf2e6ff9c91a7834c1ba4fdd244a5e8aa4e537bd38aeae4b073aa335b6040516001600160a01b03909116815260200160405180910390a1565b600180546001600160a01b03191690556107ed816114aa565b6113af61140c565b6003805460ff191660011790557f62e78cea01bee320cd4e420270b5ea74000d11b0c9f74754ebdbfc544b05a2586113713390565b600280540361140657604051633ee5aeb560e01b815260040160405180910390fd5b60028055565b60035460ff161561065a5760405163d93c066560e01b815260040160405180910390fd5b604080516001600160a01b038416602482015260448082018490528251808303909101815260649091019091526020810180516001600160e01b031663a9059cbb60e01b1790526114829084906114fa565b505050565b60035460ff1661065a57604051638dfc202b60e01b815260040160405180910390fd5b600080546001600160a01b038381166001600160a01b0319831681178455604051919092169283917f8be0079c531659141344cd1fd0a4f28419497f9722a3daafe3b4186f6b6457e09190a35050565b600080602060008451602086016000885af18061151d576040513d6000823e3d81fd5b50506000513d91508115611535578060011415611542565b6001600160a01b0384163b155b1561078f57604051635274afe760e01b81526001600160a01b03851660048201526024016107db565b80356001600160a01b038116811461158257600080fd5b919050565b60006020828403121561159957600080fd5b6115a28261156b565b9392505050565b8035801515811461158257600080fd5b600080604083850312156115cc57600080fd5b6115d58361156b565b91506115e3602084016115a9565b90509250929050565b6000602082840312156115fe57600080fd5b6115a2826115a9565b60008083601f84011261161957600080fd5b50813567ffffffffffffffff81111561163157600080fd5b6020830191508360208260051b850101111561164c57600080fd5b9250929050565b60008060006040848603121561166857600080fd5b833567ffffffffffffffff81111561167f57600080fd5b61168b86828701611607565b909450925061169e9050602085016115a9565b90509250925092565b600080600080608085870312156116bd57600080fd5b6116c68561156b565b93506116d46020860161156b565b92506116e26040860161156b565b9396929550929360600135925050565b6000806040838503121561170557600080fd5b61170e8361156b565b946020939093013593505050565b60006020828403121561172e57600080fd5b5035919050565b60008060006060848603121561174a57600080fd5b6117538461156b565b92506117616020850161156b565b9150604084013590509250925092565b6000806000806040858703121561178757600080fd5b843567ffffffffffffffff8082111561179f57600080fd5b6117ab88838901611607565b909650945060208701359150808211156117c457600080fd5b506117d187828801611607565b95989497509550505050565b634e487b7160e01b600052603260045260246000fd5b634e487b7160e01b600052601160045260246000fd5b60006001820161181b5761181b6117f3565b5060010190565b600081611831576118316117f3565b506000190190565b60006020828403121561184b57600080fd5b5051919050565b8082028115828204841417611869576118696117f3565b92915050565b60008261188c57634e487b7160e01b600052601260045260246000fd5b500490565b81810381811115611869576118696117f3565b80820180821115611869576118696117f356fea264697066735822122094a1939c2478744e48da1d5508e3f0a238291d901603ba1c0d1c0c00a1499eb764736f6c63430008140033","opcodes":"PUSH1 0x80 PUSH1 0x40 MSTORE CALLVALUE DUP1 ISZERO PUSH3 0x11 JUMPI PUSH1 0x0 DUP1 REVERT JUMPDEST POP PUSH1 0x40 MLOAD PUSH3 0x1B1E CODESIZE SUB DUP1 PUSH3 0x1B1E DUP4 CODECOPY DUP2 ADD PUSH1 0x40 DUP2 SWAP1 MSTORE PUSH3 0x34 SWAP2 PUSH3 0x1E0 JUMP JUMPDEST CALLER DUP1 PUSH3 0x5B JUMPI PUSH1 0x40 MLOAD PUSH4 0x1E4FBDF7 PUSH1 0xE0 SHL DUP2 MSTORE PUSH1 0x0 PUSH1 0x4 DUP3 ADD MSTORE PUSH1 0x24 ADD PUSH1 0x40 MLOAD DUP1 SWAP2 SUB SWAP1 REVERT JUMPDEST PUSH3 0x66 DUP2 PUSH3 0x155 JUMP JUMPDEST POP PUSH1 0x1 PUSH1 0x2 SSTORE PUSH1 0x1 PUSH1 0x1 PUSH1 0xA0 SHL SUB DUP4 AND PUSH3 0x94 JUMPI PUSH1 0x40 MLOAD PUSH4 0x2979EB9 PUSH1 0xE3 SHL DUP2 MSTORE PUSH1 0x4 ADD PUSH1 0x40 MLOAD DUP1 SWAP2 SUB SWAP1 REVERT JUMPDEST PUSH2 0x3E8 DUP3 GT ISZERO PUSH3 0xB8 JUMPI PUSH1 0x40 MLOAD PUSH4 0xCD4E6167 PUSH1 0xE0 SHL DUP2 MSTORE PUSH1 0x4 ADD PUSH1 0x40 MLOAD DUP1 SWAP2 SUB SWAP1 REVERT JUMPDEST PUSH1 0x3 DUP1 SLOAD PUSH1 0x1 PUSH1 0x1 PUSH1 0xA0 SHL SUB DUP1 DUP7 AND PUSH2 0x100 MUL PUSH2 0x100 PUSH1 0x1 PUSH1 0xA8 SHL SUB NOT SWAP1 SWAP3 AND SWAP2 SWAP1 SWAP2 OR SWAP1 SWAP2 SSTORE PUSH1 0x6 DUP4 SWAP1 SSTORE DUP2 AND ISZERO PUSH3 0x14C JUMPI PUSH1 0x1 PUSH1 0x1 PUSH1 0xA0 SHL SUB DUP2 AND PUSH1 0x0 DUP2 DUP2 MSTORE PUSH1 0x7 PUSH1 0x20 SWAP1 DUP2 MSTORE PUSH1 0x40 SWAP2 DUP3 SWAP1 KECCAK256 DUP1 SLOAD PUSH1 0xFF NOT AND PUSH1 0x1 SWAP1 DUP2 OR SWAP1 SWAP2 SSTORE PUSH1 0x8 DUP2 SWAP1 SSTORE SWAP2 MLOAD SWAP2 DUP3 MSTORE PUSH32 0x23B563B53629727DE17C5CEC4B391A63440584FDAF0D888A95BBC671DA2C62E1 SWAP2 ADD PUSH1 0x40 MLOAD DUP1 SWAP2 SUB SWAP1 LOG2 JUMPDEST POP POP POP PUSH3 0x221 JUMP JUMPDEST PUSH1 0x1 DUP1 SLOAD PUSH1 0x1 PUSH1 0x1 PUSH1 0xA0 SHL SUB NOT AND SWAP1 SSTORE PUSH3 0x170 DUP2 PUSH3 0x173 JUMP JUMPDEST POP JUMP JUMPDEST PUSH1 0x0 DUP1 SLOAD PUSH1 0x1 PUSH1 0x1 PUSH1 0xA0 SHL SUB DUP4 DUP2 AND PUSH1 0x1 PUSH1 0x1 PUSH1 0xA0 SHL SUB NOT DUP4 AND DUP2 OR DUP5 SSTORE PUSH1 0x40 MLOAD SWAP2 SWAP1 SWAP3 AND SWAP3 DUP4 SWAP2 PUSH32 0x8BE0079C531659141344CD1FD0A4F28419497F9722A3DAAFE3B4186F6B6457E0 SWAP2 SWAP1 LOG3 POP POP JUMP JUMPDEST DUP1 MLOAD PUSH1 0x1 PUSH1 0x1 PUSH1 0xA0 SHL SUB DUP2 AND DUP2 EQ PUSH3 0x1DB JUMPI PUSH1 0x0 DUP1 REVERT JUMPDEST SWAP2 SWAP1 POP JUMP JUMPDEST PUSH1 0x0 DUP1 PUSH1 0x0 PUSH1 0x60 DUP5 DUP7 SUB SLT ISZERO PUSH3 0x1F6 JUMPI PUSH1 0x0 DUP1 REVERT JUMPDEST PUSH3 0x201 DUP5 PUSH3 0x1C3 JUMP JUMPDEST SWAP3 POP PUSH1 0x20 DUP5 ADD MLOAD SWAP2 POP PUSH3 0x218 PUSH1 0x40 DUP6 ADD PUSH3 0x1C3 JUMP JUMPDEST SWAP1 POP SWAP3 POP SWAP3 POP SWAP3 JUMP JUMPDEST PUSH2 0x18ED DUP1 PUSH3 0x231 PUSH1 0x0 CODECOPY PUSH1 0x0 RETURN INVALID PUSH1 0x80 PUSH1 0x40 MSTORE CALLVALUE DUP1 ISZERO PUSH2 0x10 JUMPI PUSH1 0x0 DUP1 REVERT JUMPDEST POP PUSH1 0x4 CALLDATASIZE LT PUSH2 0x227 JUMPI PUSH1 0x0 CALLDATALOAD PUSH1 0xE0 SHR DUP1 PUSH4 0x8DA5CB5B GT PUSH2 0x130 JUMPI DUP1 PUSH4 0xCA88D5C5 GT PUSH2 0xB8 JUMPI DUP1 PUSH4 0xF0F44260 GT PUSH2 0x7C JUMPI DUP1 PUSH4 0xF0F44260 EQ PUSH2 0x52F JUMPI DUP1 PUSH4 0xF2F7C06A EQ PUSH2 0x542 JUMPI DUP1 PUSH4 0xF2FDE38B EQ PUSH2 0x555 JUMPI DUP1 PUSH4 0xF3ABBA10 EQ PUSH2 0x568 JUMPI DUP1 PUSH4 0xFF8507E8 EQ PUSH2 0x57B JUMPI PUSH1 0x0 DUP1 REVERT JUMPDEST DUP1 PUSH4 0xCA88D5C5 EQ PUSH2 0x4B8 JUMPI DUP1 PUSH4 0xD55BE8C6 EQ PUSH2 0x4FA JUMPI DUP1 PUSH4 0xDDBCB5FA EQ PUSH2 0x503 JUMPI DUP1 PUSH4 0xDF15F1AC EQ PUSH2 0x50B JUMPI DUP1 PUSH4 0xE30C3978 EQ PUSH2 0x51E JUMPI PUSH1 0x0 DUP1 REVERT JUMPDEST DUP1 PUSH4 0xB1014CBB GT PUSH2 0xFF JUMPI DUP1 PUSH4 0xB1014CBB EQ PUSH2 0x425 JUMPI DUP1 PUSH4 0xBCAE25A4 EQ PUSH2 0x438 JUMPI DUP1 PUSH4 0xC57BEAE4 EQ PUSH2 0x441 JUMPI DUP1 PUSH4 0xC59D4847 EQ PUSH2 0x464 JUMPI DUP1 PUSH4 0xC93A6C84 EQ PUSH2 0x4A5 JUMPI PUSH1 0x0 DUP1 REVERT JUMPDEST DUP1 PUSH4 0x8DA5CB5B EQ PUSH2 0x3C6 JUMPI DUP1 PUSH4 0x8F57E97D EQ PUSH2 0x3D7 JUMPI DUP1 PUSH4 0x94CC6D72 EQ PUSH2 0x3EA JUMPI DUP1 PUSH4 0x95CCEA67 EQ PUSH2 0x412 JUMPI PUSH1 0x0 DUP1 REVERT JUMPDEST DUP1 PUSH4 0x61D027B3 GT PUSH2 0x1B3 JUMPI DUP1 PUSH4 0x79F6351B GT PUSH2 0x182 JUMPI DUP1 PUSH4 0x79F6351B EQ PUSH2 0x369 JUMPI DUP1 PUSH4 0x80FC2E15 EQ PUSH2 0x389 JUMPI DUP1 PUSH4 0x8456CB59 EQ PUSH2 0x3AC JUMPI DUP1 PUSH4 0x888A42D3 EQ PUSH2 0x3B4 JUMPI DUP1 PUSH4 0x88DAE6A8 EQ PUSH2 0x3BD JUMPI PUSH1 0x0 DUP1 REVERT JUMPDEST DUP1 PUSH4 0x61D027B3 EQ PUSH2 0x31C JUMPI DUP1 PUSH4 0x70C757EC EQ PUSH2 0x34C JUMPI DUP1 PUSH4 0x715018A6 EQ PUSH2 0x359 JUMPI DUP1 PUSH4 0x79BA5097 EQ PUSH2 0x361 JUMPI PUSH1 0x0 DUP1 REVERT JUMPDEST DUP1 PUSH4 0x3A9C5712 GT PUSH2 0x1FA JUMPI DUP1 PUSH4 0x3A9C5712 EQ PUSH2 0x2CE JUMPI DUP1 PUSH4 0x3F4BA83A EQ PUSH2 0x2E3 JUMPI DUP1 PUSH4 0x425BC1E9 EQ PUSH2 0x2EB JUMPI DUP1 PUSH4 0x5C975ABB EQ PUSH2 0x2FE JUMPI DUP1 PUSH4 0x5E3B973E EQ PUSH2 0x309 JUMPI PUSH1 0x0 DUP1 REVERT JUMPDEST DUP1 PUSH4 0x1CEAD9A7 EQ PUSH2 0x22C JUMPI DUP1 PUSH4 0x252154FA EQ PUSH2 0x25F JUMPI DUP1 PUSH4 0x33460540 EQ PUSH2 0x272 JUMPI DUP1 PUSH4 0x38CAED9F EQ PUSH2 0x2AE JUMPI JUMPDEST PUSH1 0x0 DUP1 REVERT JUMPDEST PUSH2 0x24C PUSH2 0x23A CALLDATASIZE PUSH1 0x4 PUSH2 0x1587 JUMP JUMPDEST PUSH1 0x9 PUSH1 0x20 MSTORE PUSH1 0x0 SWAP1 DUP2 MSTORE PUSH1 0x40 SWAP1 KECCAK256 SLOAD DUP2 JUMP JUMPDEST PUSH1 0x40 MLOAD SWAP1 DUP2 MSTORE PUSH1 0x20 ADD JUMPDEST PUSH1 0x40 MLOAD DUP1 SWAP2 SUB SWAP1 RETURN JUMPDEST PUSH2 0x24C PUSH2 0x26D CALLDATASIZE PUSH1 0x4 PUSH2 0x1587 JUMP JUMPDEST PUSH2 0x59E JUMP JUMPDEST PUSH2 0x29E PUSH2 0x280 CALLDATASIZE PUSH1 0x4 PUSH2 0x1587 JUMP JUMPDEST PUSH1 0x1 PUSH1 0x1 PUSH1 0xA0 SHL SUB AND PUSH1 0x0 SWAP1 DUP2 MSTORE PUSH1 0x7 PUSH1 0x20 MSTORE PUSH1 0x40 SWAP1 KECCAK256 SLOAD PUSH1 0xFF AND SWAP1 JUMP JUMPDEST PUSH1 0x40 MLOAD SWAP1 ISZERO ISZERO DUP2 MSTORE PUSH1 0x20 ADD PUSH2 0x256 JUMP JUMPDEST PUSH2 0x24C PUSH2 0x2BC CALLDATASIZE PUSH1 0x4 PUSH2 0x1587 JUMP JUMPDEST PUSH1 0xB PUSH1 0x20 MSTORE PUSH1 0x0 SWAP1 DUP2 MSTORE PUSH1 0x40 SWAP1 KECCAK256 SLOAD DUP2 JUMP JUMPDEST PUSH2 0x2E1 PUSH2 0x2DC CALLDATASIZE PUSH1 0x4 PUSH2 0x15B9 JUMP JUMPDEST PUSH2 0x5E3 JUMP JUMPDEST STOP JUMPDEST PUSH2 0x2E1 PUSH2 0x64A JUMP JUMPDEST PUSH2 0x2E1 PUSH2 0x2F9 CALLDATASIZE PUSH1 0x4 PUSH2 0x15EC JUMP JUMPDEST PUSH2 0x65C JUMP JUMPDEST PUSH1 0x3 SLOAD PUSH1 0xFF AND PUSH2 0x29E JUMP JUMPDEST PUSH2 0x2E1 PUSH2 0x317 CALLDATASIZE PUSH1 0x4 PUSH2 0x1653 JUMP JUMPDEST PUSH2 0x6AB JUMP JUMPDEST PUSH1 0x3 SLOAD PUSH2 0x334 SWAP1 PUSH2 0x100 SWAP1 DIV PUSH1 0x1 PUSH1 0x1 PUSH1 0xA0 SHL SUB AND DUP2 JUMP JUMPDEST PUSH1 0x40 MLOAD PUSH1 0x1 PUSH1 0x1 PUSH1 0xA0 SHL SUB SWAP1 SWAP2 AND DUP2 MSTORE PUSH1 0x20 ADD PUSH2 0x256 JUMP JUMPDEST PUSH1 0xC SLOAD PUSH2 0x29E SWAP1 PUSH1 0xFF AND DUP2 JUMP JUMPDEST PUSH2 0x2E1 PUSH2 0x795 JUMP JUMPDEST PUSH2 0x2E1 PUSH2 0x7A7 JUMP JUMPDEST PUSH2 0x24C PUSH2 0x377 CALLDATASIZE PUSH1 0x4 PUSH2 0x1587 JUMP JUMPDEST PUSH1 0x4 PUSH1 0x20 MSTORE PUSH1 0x0 SWAP1 DUP2 MSTORE PUSH1 0x40 SWAP1 KECCAK256 SLOAD DUP2 JUMP JUMPDEST PUSH2 0x29E PUSH2 0x397 CALLDATASIZE PUSH1 0x4 PUSH2 0x1587 JUMP JUMPDEST PUSH1 0x5 PUSH1 0x20 MSTORE PUSH1 0x0 SWAP1 DUP2 MSTORE PUSH1 0x40 SWAP1 KECCAK256 SLOAD PUSH1 0xFF AND DUP2 JUMP JUMPDEST PUSH2 0x2E1 PUSH2 0x7F0 JUMP JUMPDEST PUSH2 0x24C PUSH1 0x8 SLOAD DUP2 JUMP JUMPDEST PUSH2 0x24C PUSH1 0xA SLOAD DUP2 JUMP JUMPDEST PUSH1 0x0 SLOAD PUSH1 0x1 PUSH1 0x1 PUSH1 0xA0 SHL SUB AND PUSH2 0x334 JUMP JUMPDEST PUSH2 0x2E1 PUSH2 0x3E5 CALLDATASIZE PUSH1 0x4 PUSH2 0x15B9 JUMP JUMPDEST PUSH2 0x800 JUMP JUMPDEST PUSH2 0x3FD PUSH2 0x3F8 CALLDATASIZE PUSH1 0x4 PUSH2 0x16A7 JUMP JUMPDEST PUSH2 0x902 JUMP JUMPDEST PUSH1 0x40 DUP1 MLOAD SWAP3 DUP4 MSTORE PUSH1 0x20 DUP4 ADD SWAP2 SWAP1 SWAP2 MSTORE ADD PUSH2 0x256 JUMP JUMPDEST PUSH2 0x2E1 PUSH2 0x420 CALLDATASIZE PUSH1 0x4 PUSH2 0x16F2 JUMP JUMPDEST PUSH2 0xBEB JUMP JUMPDEST PUSH2 0x2E1 PUSH2 0x433 CALLDATASIZE PUSH1 0x4 PUSH2 0x16F2 JUMP JUMPDEST PUSH2 0xCEA JUMP JUMPDEST PUSH2 0x24C PUSH1 0x6 SLOAD DUP2 JUMP JUMPDEST PUSH2 0x29E PUSH2 0x44F CALLDATASIZE PUSH1 0x4 PUSH2 0x1587 JUMP JUMPDEST PUSH1 0x7 PUSH1 0x20 MSTORE PUSH1 0x0 SWAP1 DUP2 MSTORE PUSH1 0x40 SWAP1 KECCAK256 SLOAD PUSH1 0xFF AND DUP2 JUMP JUMPDEST PUSH2 0x46C PUSH2 0xD7F JUMP JUMPDEST PUSH1 0x40 DUP1 MLOAD SWAP7 DUP8 MSTORE PUSH1 0x1 PUSH1 0x1 PUSH1 0xA0 SHL SUB SWAP1 SWAP6 AND PUSH1 0x20 DUP8 ADD MSTORE SWAP4 DUP6 ADD SWAP3 SWAP1 SWAP3 MSTORE PUSH1 0x60 DUP5 ADD MSTORE ISZERO ISZERO PUSH1 0x80 DUP4 ADD MSTORE ISZERO ISZERO PUSH1 0xA0 DUP3 ADD MSTORE PUSH1 0xC0 ADD PUSH2 0x256 JUMP JUMPDEST PUSH2 0x2E1 PUSH2 0x4B3 CALLDATASIZE PUSH1 0x4 PUSH2 0x171C JUMP JUMPDEST PUSH2 0xDCD JUMP JUMPDEST PUSH2 0x4CB PUSH2 0x4C6 CALLDATASIZE PUSH1 0x4 PUSH2 0x1587 JUMP JUMPDEST PUSH2 0xE3D JUMP JUMPDEST PUSH1 0x40 MLOAD PUSH2 0x256 SWAP6 SWAP5 SWAP4 SWAP3 SWAP2 SWAP1 SWAP5 DUP6 MSTORE SWAP3 ISZERO ISZERO PUSH1 0x20 DUP6 ADD MSTORE SWAP1 ISZERO ISZERO PUSH1 0x40 DUP5 ADD MSTORE PUSH1 0x60 DUP4 ADD MSTORE PUSH1 0x80 DUP3 ADD MSTORE PUSH1 0xA0 ADD SWAP1 JUMP JUMPDEST PUSH2 0x24C PUSH2 0x3E8 DUP2 JUMP JUMPDEST PUSH2 0x24C PUSH1 0x1 DUP2 JUMP JUMPDEST PUSH2 0x3FD PUSH2 0x519 CALLDATASIZE PUSH1 0x4 PUSH2 0x16F2 JUMP JUMPDEST PUSH2 0xE9F JUMP JUMPDEST PUSH1 0x1 SLOAD PUSH1 0x1 PUSH1 0x1 PUSH1 0xA0 SHL SUB AND PUSH2 0x334 JUMP JUMPDEST PUSH2 0x2E1 PUSH2 0x53D CALLDATASIZE PUSH1 0x4 PUSH2 0x1587 JUMP JUMPDEST PUSH2 0xEDC JUMP JUMPDEST PUSH2 0x2E1 PUSH2 0x550 CALLDATASIZE PUSH1 0x4 PUSH2 0x1735 JUMP JUMPDEST PUSH2 0xF65 JUMP JUMPDEST PUSH2 0x2E1 PUSH2 0x563 CALLDATASIZE PUSH1 0x4 PUSH2 0x1587 JUMP JUMPDEST PUSH2 0x107C JUMP JUMPDEST PUSH2 0x2E1 PUSH2 0x576 CALLDATASIZE PUSH1 0x4 PUSH2 0x1771 JUMP JUMPDEST PUSH2 0x10ED JUMP JUMPDEST PUSH2 0x29E PUSH2 0x589 CALLDATASIZE PUSH1 0x4 PUSH2 0x1587 JUMP JUMPDEST PUSH1 0xD PUSH1 0x20 MSTORE PUSH1 0x0 SWAP1 DUP2 MSTORE PUSH1 0x40 SWAP1 KECCAK256 SLOAD PUSH1 0xFF AND DUP2 JUMP JUMPDEST PUSH1 0x1 PUSH1 0x1 PUSH1 0xA0 SHL SUB DUP2 AND PUSH1 0x0 SWAP1 DUP2 MSTORE PUSH1 0x5 PUSH1 0x20 MSTORE PUSH1 0x40 DUP2 KECCAK256 SLOAD PUSH1 0xFF AND ISZERO PUSH2 0x5DB JUMPI POP PUSH1 0x1 PUSH1 0x1 PUSH1 0xA0 SHL SUB AND PUSH1 0x0 SWAP1 DUP2 MSTORE PUSH1 0x4 PUSH1 0x20 MSTORE PUSH1 0x40 SWAP1 KECCAK256 SLOAD SWAP1 JUMP JUMPDEST POP POP PUSH1 0x6 SLOAD SWAP1 JUMP JUMPDEST PUSH2 0x5EB PUSH2 0x130F JUMP JUMPDEST PUSH1 0x1 PUSH1 0x1 PUSH1 0xA0 SHL SUB DUP3 AND PUSH1 0x0 DUP2 DUP2 MSTORE PUSH1 0xD PUSH1 0x20 SWAP1 DUP2 MSTORE PUSH1 0x40 SWAP2 DUP3 SWAP1 KECCAK256 DUP1 SLOAD PUSH1 0xFF NOT AND DUP6 ISZERO ISZERO SWAP1 DUP2 OR SWAP1 SWAP2 SSTORE SWAP2 MLOAD SWAP2 DUP3 MSTORE PUSH32 0x67821D5384BB02AAB1BA91A477F89C9966CD30F475B02618BDC58712BCA51275 SWAP2 ADD PUSH1 0x40 MLOAD DUP1 SWAP2 SUB SWAP1 LOG2 POP POP JUMP JUMPDEST PUSH2 0x652 PUSH2 0x130F JUMP JUMPDEST PUSH2 0x65A PUSH2 0x133C JUMP JUMPDEST JUMP JUMPDEST PUSH2 0x664 PUSH2 0x130F JUMP JUMPDEST PUSH1 0xC DUP1 SLOAD PUSH1 0xFF NOT AND DUP3 ISZERO ISZERO SWAP1 DUP2 OR SWAP1 SWAP2 SSTORE PUSH1 0x40 MLOAD SWAP1 DUP2 MSTORE PUSH32 0x2D096E0CE298196D706256BE0F2A6EF71011A475A3224558A3A71386DA284E65 SWAP1 PUSH1 0x20 ADD PUSH1 0x40 MLOAD DUP1 SWAP2 SUB SWAP1 LOG1 POP JUMP JUMPDEST PUSH2 0x6B3 PUSH2 0x130F JUMP JUMPDEST PUSH1 0x0 JUMPDEST DUP3 DUP2 LT ISZERO PUSH2 0x78F JUMPI DUP2 PUSH1 0xD PUSH1 0x0 DUP7 DUP7 DUP6 DUP2 DUP2 LT PUSH2 0x6D5 JUMPI PUSH2 0x6D5 PUSH2 0x17DD JUMP JUMPDEST SWAP1 POP PUSH1 0x20 MUL ADD PUSH1 0x20 DUP2 ADD SWAP1 PUSH2 0x6EA SWAP2 SWAP1 PUSH2 0x1587 JUMP JUMPDEST PUSH1 0x1 PUSH1 0x1 PUSH1 0xA0 SHL SUB AND DUP2 MSTORE PUSH1 0x20 DUP2 ADD SWAP2 SWAP1 SWAP2 MSTORE PUSH1 0x40 ADD PUSH1 0x0 KECCAK256 DUP1 SLOAD PUSH1 0xFF NOT AND SWAP2 ISZERO ISZERO SWAP2 SWAP1 SWAP2 OR SWAP1 SSTORE DUP4 DUP4 DUP3 DUP2 DUP2 LT PUSH2 0x724 JUMPI PUSH2 0x724 PUSH2 0x17DD JUMP JUMPDEST SWAP1 POP PUSH1 0x20 MUL ADD PUSH1 0x20 DUP2 ADD SWAP1 PUSH2 0x739 SWAP2 SWAP1 PUSH2 0x1587 JUMP JUMPDEST PUSH1 0x1 PUSH1 0x1 PUSH1 0xA0 SHL SUB AND PUSH32 0x67821D5384BB02AAB1BA91A477F89C9966CD30F475B02618BDC58712BCA51275 DUP4 PUSH1 0x40 MLOAD PUSH2 0x775 SWAP2 ISZERO ISZERO DUP2 MSTORE PUSH1 0x20 ADD SWAP1 JUMP JUMPDEST PUSH1 0x40 MLOAD DUP1 SWAP2 SUB SWAP1 LOG2 DUP1 PUSH2 0x787 DUP2 PUSH2 0x1809 JUMP JUMPDEST SWAP2 POP POP PUSH2 0x6B6 JUMP JUMPDEST POP POP POP POP JUMP JUMPDEST PUSH2 0x79D PUSH2 0x130F JUMP JUMPDEST PUSH2 0x65A PUSH1 0x0 PUSH2 0x138E JUMP JUMPDEST PUSH1 0x1 SLOAD CALLER SWAP1 PUSH1 0x1 PUSH1 0x1 PUSH1 0xA0 SHL SUB AND DUP2 EQ PUSH2 0x7E4 JUMPI PUSH1 0x40 MLOAD PUSH4 0x118CDAA7 PUSH1 0xE0 SHL DUP2 MSTORE PUSH1 0x1 PUSH1 0x1 PUSH1 0xA0 SHL SUB DUP3 AND PUSH1 0x4 DUP3 ADD MSTORE PUSH1 0x24 ADD JUMPDEST PUSH1 0x40 MLOAD DUP1 SWAP2 SUB SWAP1 REVERT JUMPDEST PUSH2 0x7ED DUP2 PUSH2 0x138E JUMP JUMPDEST POP JUMP JUMPDEST PUSH2 0x7F8 PUSH2 0x130F JUMP JUMPDEST PUSH2 0x65A PUSH2 0x13A7 JUMP JUMPDEST PUSH2 0x808 PUSH2 0x130F JUMP JUMPDEST PUSH1 0x1 PUSH1 0x1 PUSH1 0xA0 SHL SUB DUP3 AND PUSH2 0x82F JUMPI PUSH1 0x40 MLOAD PUSH4 0x4E469669 PUSH1 0xE1 SHL DUP2 MSTORE PUSH1 0x4 ADD PUSH1 0x40 MLOAD DUP1 SWAP2 SUB SWAP1 REVERT JUMPDEST PUSH1 0x1 PUSH1 0x1 PUSH1 0xA0 SHL SUB DUP3 AND PUSH1 0x0 SWAP1 DUP2 MSTORE PUSH1 0x7 PUSH1 0x20 MSTORE PUSH1 0x40 SWAP1 KECCAK256 SLOAD PUSH1 0xFF AND DUP2 ISZERO ISZERO DUP2 ISZERO ISZERO SUB PUSH2 0x85B JUMPI POP POP POP JUMP JUMPDEST PUSH1 0x1 PUSH1 0x1 PUSH1 0xA0 SHL SUB DUP4 AND PUSH1 0x0 SWAP1 DUP2 MSTORE PUSH1 0x7 PUSH1 0x20 MSTORE PUSH1 0x40 SWAP1 KECCAK256 DUP1 SLOAD PUSH1 0xFF NOT AND DUP4 ISZERO DUP1 ISZERO SWAP2 SWAP1 SWAP2 OR SWAP1 SWAP2 SSTORE PUSH2 0x8A2 JUMPI PUSH1 0x8 DUP1 SLOAD SWAP1 PUSH1 0x0 PUSH2 0x898 DUP4 PUSH2 0x1809 JUMP JUMPDEST SWAP2 SWAP1 POP SSTORE POP PUSH2 0x8B8 JUMP JUMPDEST PUSH1 0x8 DUP1 SLOAD SWAP1 PUSH1 0x0 PUSH2 0x8B2 DUP4 PUSH2 0x1822 JUMP JUMPDEST SWAP2 SWAP1 POP SSTORE POP JUMPDEST DUP3 PUSH1 0x1 PUSH1 0x1 PUSH1 0xA0 SHL SUB AND PUSH32 0x23B563B53629727DE17C5CEC4B391A63440584FDAF0D888A95BBC671DA2C62E1 DUP4 PUSH1 0x40 MLOAD PUSH2 0x8F5 SWAP2 ISZERO ISZERO DUP2 MSTORE PUSH1 0x20 ADD SWAP1 JUMP JUMPDEST PUSH1 0x40 MLOAD DUP1 SWAP2 SUB SWAP1 LOG2 POP POP POP JUMP JUMPDEST PUSH1 0x0 DUP1 PUSH2 0x90D PUSH2 0x13E4 JUMP JUMPDEST PUSH2 0x915 PUSH2 0x140C JUMP JUMPDEST CALLER PUSH1 0x0 SWAP1 DUP2 MSTORE PUSH1 0x7 PUSH1 0x20 MSTORE PUSH1 0x40 SWAP1 KECCAK256 SLOAD PUSH1 0xFF AND PUSH2 0x945 JUMPI PUSH1 0x40 MLOAD PUSH4 0x2AB21321 PUSH1 0xE0 SHL DUP2 MSTORE PUSH1 0x4 ADD PUSH1 0x40 MLOAD DUP1 SWAP2 SUB SWAP1 REVERT JUMPDEST PUSH1 0x1 PUSH1 0x1 PUSH1 0xA0 SHL SUB DUP7 AND PUSH2 0x96C JUMPI PUSH1 0x40 MLOAD PUSH4 0xC1AB6DC1 PUSH1 0xE0 SHL DUP2 MSTORE PUSH1 0x4 ADD PUSH1 0x40 MLOAD DUP1 SWAP2 SUB SWAP1 REVERT JUMPDEST PUSH1 0x1 PUSH1 0x1 PUSH1 0xA0 SHL SUB DUP5 AND ISZERO DUP1 PUSH2 0x98A JUMPI POP PUSH1 0x1 PUSH1 0x1 PUSH1 0xA0 SHL SUB DUP5 AND ADDRESS EQ JUMPDEST ISZERO PUSH2 0x9A8 JUMPI PUSH1 0x40 MLOAD PUSH4 0x4E469669 PUSH1 0xE1 SHL DUP2 MSTORE PUSH1 0x4 ADD PUSH1 0x40 MLOAD DUP1 SWAP2 SUB SWAP1 REVERT JUMPDEST PUSH1 0x1 DUP4 LT ISZERO PUSH2 0x9CA JUMPI PUSH1 0x40 MLOAD PUSH4 0x162908E3 PUSH1 0xE1 SHL DUP2 MSTORE PUSH1 0x4 ADD PUSH1 0x40 MLOAD DUP1 SWAP2 SUB SWAP1 REVERT JUMPDEST PUSH1 0xC SLOAD PUSH1 0xFF AND DUP1 ISZERO PUSH2 0x9F5 JUMPI POP PUSH1 0x1 PUSH1 0x1 PUSH1 0xA0 SHL SUB DUP7 AND PUSH1 0x0 SWAP1 DUP2 MSTORE PUSH1 0xD PUSH1 0x20 MSTORE PUSH1 0x40 SWAP1 KECCAK256 SLOAD PUSH1 0xFF AND ISZERO JUMPDEST ISZERO PUSH2 0xA13 JUMPI PUSH1 0x40 MLOAD PUSH4 0x7C241AD PUSH1 0xE5 SHL DUP2 MSTORE PUSH1 0x4 ADD PUSH1 0x40 MLOAD DUP1 SWAP2 SUB SWAP1 REVERT JUMPDEST PUSH1 0x40 MLOAD PUSH4 0x70A08231 PUSH1 0xE0 SHL DUP2 MSTORE ADDRESS PUSH1 0x4 DUP3 ADD MSTORE PUSH1 0x0 SWAP1 PUSH1 0x1 PUSH1 0x1 PUSH1 0xA0 SHL SUB DUP9 AND SWAP1 PUSH4 0x70A08231 SWAP1 PUSH1 0x24 ADD PUSH1 0x20 PUSH1 0x40 MLOAD DUP1 DUP4 SUB DUP2 DUP7 GAS STATICCALL ISZERO DUP1 ISZERO PUSH2 0xA5A JUMPI RETURNDATASIZE PUSH1 0x0 DUP1 RETURNDATACOPY RETURNDATASIZE PUSH1 0x0 REVERT JUMPDEST POP POP POP POP PUSH1 0x40 MLOAD RETURNDATASIZE PUSH1 0x1F NOT PUSH1 0x1F DUP3 ADD AND DUP3 ADD DUP1 PUSH1 0x40 MSTORE POP DUP2 ADD SWAP1 PUSH2 0xA7E SWAP2 SWAP1 PUSH2 0x1839 JUMP JUMPDEST SWAP1 POP DUP4 DUP2 LT ISZERO PUSH2 0xAA1 JUMPI PUSH1 0x40 MLOAD PUSH4 0x1E9ACF17 PUSH1 0xE3 SHL DUP2 MSTORE PUSH1 0x4 ADD PUSH1 0x40 MLOAD DUP1 SWAP2 SUB SWAP1 REVERT JUMPDEST PUSH1 0x0 PUSH2 0xAAC DUP9 PUSH2 0x59E JUMP JUMPDEST SWAP1 POP PUSH2 0x2710 PUSH2 0xABB DUP3 DUP8 PUSH2 0x1852 JUMP JUMPDEST PUSH2 0xAC5 SWAP2 SWAP1 PUSH2 0x186F JUMP JUMPDEST SWAP3 POP PUSH2 0xAD1 DUP4 DUP7 PUSH2 0x1891 JUMP JUMPDEST SWAP4 POP PUSH2 0xAE7 PUSH1 0x1 PUSH1 0x1 PUSH1 0xA0 SHL SUB DUP10 AND DUP8 DUP7 PUSH2 0x1430 JUMP JUMPDEST DUP3 ISZERO PUSH2 0xB3A JUMPI PUSH1 0x3 SLOAD PUSH2 0xB0C SWAP1 PUSH1 0x1 PUSH1 0x1 PUSH1 0xA0 SHL SUB DUP11 DUP2 AND SWAP2 PUSH2 0x100 SWAP1 DIV AND DUP6 PUSH2 0x1430 JUMP JUMPDEST PUSH1 0x1 PUSH1 0x1 PUSH1 0xA0 SHL SUB DUP9 AND PUSH1 0x0 SWAP1 DUP2 MSTORE PUSH1 0x9 PUSH1 0x20 MSTORE PUSH1 0x40 DUP2 KECCAK256 DUP1 SLOAD DUP6 SWAP3 SWAP1 PUSH2 0xB34 SWAP1 DUP5 SWAP1 PUSH2 0x18A4 JUMP JUMPDEST SWAP1 SWAP2 SSTORE POP POP JUMPDEST PUSH1 0xA DUP1 SLOAD SWAP1 PUSH1 0x0 PUSH2 0xB4A DUP4 PUSH2 0x1809 JUMP JUMPDEST SWAP1 SWAP2 SSTORE POP POP PUSH1 0x1 PUSH1 0x1 PUSH1 0xA0 SHL SUB DUP9 AND PUSH1 0x0 SWAP1 DUP2 MSTORE PUSH1 0xB PUSH1 0x20 MSTORE PUSH1 0x40 DUP2 KECCAK256 DUP1 SLOAD DUP8 SWAP3 SWAP1 PUSH2 0xB77 SWAP1 DUP5 SWAP1 PUSH2 0x18A4 JUMP JUMPDEST SWAP1 SWAP2 SSTORE POP POP PUSH1 0x40 DUP1 MLOAD DUP7 DUP2 MSTORE PUSH1 0x20 DUP2 ADD DUP7 SWAP1 MSTORE SWAP1 DUP2 ADD DUP5 SWAP1 MSTORE CALLER PUSH1 0x60 DUP3 ADD MSTORE PUSH1 0x1 PUSH1 0x1 PUSH1 0xA0 SHL SUB DUP1 DUP9 AND SWAP2 DUP10 DUP3 AND SWAP2 DUP12 AND SWAP1 PUSH32 0xB4774686571AEA02FF343FA83C0E541C702F4CA498995FFBEA473FEA45F5A252 SWAP1 PUSH1 0x80 ADD PUSH1 0x40 MLOAD DUP1 SWAP2 SUB SWAP1 LOG4 POP POP PUSH2 0xBE2 PUSH1 0x1 PUSH1 0x2 SSTORE JUMP JUMPDEST SWAP5 POP SWAP5 SWAP3 POP POP POP JUMP JUMPDEST PUSH2 0xBF3 PUSH2 0x130F JUMP JUMPDEST PUSH1 0x40 MLOAD PUSH4 0x70A08231 PUSH1 0xE0 SHL DUP2 MSTORE ADDRESS PUSH1 0x4 DUP3 ADD MSTORE PUSH1 0x0 SWAP1 PUSH1 0x1 PUSH1 0x1 PUSH1 0xA0 SHL SUB DUP5 AND SWAP1 PUSH4 0x70A08231 SWAP1 PUSH1 0x24 ADD PUSH1 0x20 PUSH1 0x40 MLOAD DUP1 DUP4 SUB DUP2 DUP7 GAS STATICCALL ISZERO DUP1 ISZERO PUSH2 0xC3A JUMPI RETURNDATASIZE PUSH1 0x0 DUP1 RETURNDATACOPY RETURNDATASIZE PUSH1 0x0 REVERT JUMPDEST POP POP POP POP PUSH1 0x40 MLOAD RETURNDATASIZE PUSH1 0x1F NOT PUSH1 0x1F DUP3 ADD AND DUP3 ADD DUP1 PUSH1 0x40 MSTORE POP DUP2 ADD SWAP1 PUSH2 0xC5E SWAP2 SWAP1 PUSH2 0x1839 JUMP JUMPDEST SWAP1 POP PUSH1 0x0 DUP2 DUP4 GT PUSH2 0xC6F JUMPI DUP3 PUSH2 0xC71 JUMP JUMPDEST DUP2 JUMPDEST PUSH1 0x3 SLOAD SWAP1 SWAP2 POP PUSH2 0xC93 SWAP1 PUSH1 0x1 PUSH1 0x1 PUSH1 0xA0 SHL SUB DUP7 DUP2 AND SWAP2 PUSH2 0x100 SWAP1 DIV AND DUP4 PUSH2 0x1430 JUMP JUMPDEST PUSH1 0x3 SLOAD PUSH1 0x40 MLOAD PUSH1 0x1 PUSH1 0x1 PUSH1 0xA0 SHL SUB PUSH2 0x100 SWAP1 SWAP3 DIV DUP3 AND SWAP2 DUP7 AND SWAP1 PUSH32 0xF24EF89F38EADC1BDE50701AD6E4D6D11A2DC24F7CF834A486991F3883328504 SWAP1 PUSH2 0xCDC SWAP1 DUP6 DUP2 MSTORE PUSH1 0x20 ADD SWAP1 JUMP JUMPDEST PUSH1 0x40 MLOAD DUP1 SWAP2 SUB SWAP1 LOG3 POP POP POP POP JUMP JUMPDEST PUSH2 0xCF2 PUSH2 0x130F JUMP JUMPDEST PUSH2 0x3E8 DUP2 GT ISZERO PUSH2 0xD15 JUMPI PUSH1 0x40 MLOAD PUSH4 0xCD4E6167 PUSH1 0xE0 SHL DUP2 MSTORE PUSH1 0x4 ADD PUSH1 0x40 MLOAD DUP1 SWAP2 SUB SWAP1 REVERT JUMPDEST PUSH1 0x1 PUSH1 0x1 PUSH1 0xA0 SHL SUB DUP3 AND PUSH1 0x0 DUP2 DUP2 MSTORE PUSH1 0x4 PUSH1 0x20 SWAP1 DUP2 MSTORE PUSH1 0x40 DUP1 DUP4 KECCAK256 DUP1 SLOAD SWAP1 DUP7 SWAP1 SSTORE PUSH1 0x5 DUP4 MSTORE SWAP3 DUP2 SWAP1 KECCAK256 DUP1 SLOAD PUSH1 0xFF NOT AND PUSH1 0x1 OR SWAP1 SSTORE DUP1 MLOAD DUP4 DUP2 MSTORE SWAP2 DUP3 ADD DUP6 SWAP1 MSTORE SWAP2 SWAP3 SWAP2 PUSH32 0x5FE83DA06836532AA42F928FE690751E055C28DAFB29FD9081EDBB43C931E8CD SWAP2 ADD PUSH2 0x8F5 JUMP JUMPDEST PUSH1 0x0 DUP1 PUSH1 0x0 DUP1 PUSH1 0x0 DUP1 PUSH1 0xA SLOAD PUSH1 0x3 PUSH1 0x1 SWAP1 SLOAD SWAP1 PUSH2 0x100 EXP SWAP1 DIV PUSH1 0x1 PUSH1 0x1 PUSH1 0xA0 SHL SUB AND PUSH1 0x6 SLOAD PUSH1 0x8 SLOAD PUSH2 0xDB3 PUSH1 0x3 SLOAD PUSH1 0xFF AND SWAP1 JUMP JUMPDEST PUSH1 0xC SLOAD SWAP5 SWAP12 SWAP4 SWAP11 POP SWAP2 SWAP9 POP SWAP7 POP SWAP5 POP PUSH1 0xFF SWAP1 SWAP2 AND SWAP3 POP SWAP1 POP JUMP JUMPDEST PUSH2 0xDD5 PUSH2 0x130F JUMP JUMPDEST PUSH2 0x3E8 DUP2 GT ISZERO PUSH2 0xDF8 JUMPI PUSH1 0x40 MLOAD PUSH4 0xCD4E6167 PUSH1 0xE0 SHL DUP2 MSTORE PUSH1 0x4 ADD PUSH1 0x40 MLOAD DUP1 SWAP2 SUB SWAP1 REVERT JUMPDEST PUSH1 0x6 DUP1 SLOAD SWAP1 DUP3 SWAP1 SSTORE PUSH1 0x40 DUP1 MLOAD DUP3 DUP2 MSTORE PUSH1 0x20 DUP2 ADD DUP5 SWAP1 MSTORE PUSH32 0xAC1F58CD233FC224BD53B979E04547B08F9E5DA37A3FA94F2AFA216DFBA59230 SWAP2 ADD PUSH1 0x40 MLOAD DUP1 SWAP2 SUB SWAP1 LOG1 POP POP JUMP JUMPDEST PUSH1 0x0 DUP1 PUSH1 0x0 DUP1 PUSH1 0x0 PUSH2 0xE4E DUP7 PUSH2 0x59E JUMP JUMPDEST PUSH1 0x1 PUSH1 0x1 PUSH1 0xA0 SHL SUB SWAP7 SWAP1 SWAP7 AND PUSH1 0x0 SWAP1 DUP2 MSTORE PUSH1 0x5 PUSH1 0x20 SWAP1 DUP2 MSTORE PUSH1 0x40 DUP1 DUP4 KECCAK256 SLOAD PUSH1 0xD DUP4 MSTORE DUP2 DUP5 KECCAK256 SLOAD PUSH1 0x9 DUP5 MSTORE DUP3 DUP6 KECCAK256 SLOAD PUSH1 0xB SWAP1 SWAP5 MSTORE SWAP2 SWAP1 SWAP4 KECCAK256 SLOAD SWAP9 SWAP10 PUSH1 0xFF SWAP4 DUP5 AND SWAP10 SWAP4 SWAP1 SWAP2 AND SWAP8 POP SWAP1 SWAP6 POP SWAP1 SWAP4 POP SWAP2 POP POP JUMP JUMPDEST PUSH1 0x0 DUP1 PUSH1 0x0 PUSH2 0xEAD DUP6 PUSH2 0x59E JUMP JUMPDEST SWAP1 POP PUSH2 0x2710 PUSH2 0xEBC DUP3 DUP7 PUSH2 0x1852 JUMP JUMPDEST PUSH2 0xEC6 SWAP2 SWAP1 PUSH2 0x186F JUMP JUMPDEST SWAP2 POP PUSH2 0xED2 DUP3 DUP6 PUSH2 0x1891 JUMP JUMPDEST SWAP3 POP POP SWAP3 POP SWAP3 SWAP1 POP JUMP JUMPDEST PUSH2 0xEE4 PUSH2 0x130F JUMP JUMPDEST PUSH1 0x1 PUSH1 0x1 PUSH1 0xA0 SHL SUB DUP2 AND PUSH2 0xF0B JUMPI PUSH1 0x40 MLOAD PUSH4 0x2979EB9 PUSH1 0xE3 SHL DUP2 MSTORE PUSH1 0x4 ADD PUSH1 0x40 MLOAD DUP1 SWAP2 SUB SWAP1 REVERT JUMPDEST PUSH1 0x3 DUP1 SLOAD PUSH1 0x1 PUSH1 0x1 PUSH1 0xA0 SHL SUB DUP4 DUP2 AND PUSH2 0x100 DUP2 DUP2 MUL PUSH2 0x100 PUSH1 0x1 PUSH1 0xA8 SHL SUB NOT DUP6 AND OR SWAP1 SWAP5 SSTORE PUSH1 0x40 MLOAD SWAP4 SWAP1 SWAP3 DIV AND SWAP2 DUP3 SWAP1 PUSH32 0x4AB5BE82436D353E61CA18726E984E561F5C1CC7C6D38B29D2553C790434705A SWAP1 PUSH1 0x0 SWAP1 LOG3 POP POP JUMP JUMPDEST PUSH2 0xF6D PUSH2 0x130F JUMP JUMPDEST PUSH1 0x1 PUSH1 0x1 PUSH1 0xA0 SHL SUB DUP3 AND PUSH2 0xF94 JUMPI PUSH1 0x40 MLOAD PUSH4 0x4E469669 PUSH1 0xE1 SHL DUP2 MSTORE PUSH1 0x4 ADD PUSH1 0x40 MLOAD DUP1 SWAP2 SUB SWAP1 REVERT JUMPDEST PUSH1 0x40 MLOAD PUSH4 0x70A08231 PUSH1 0xE0 SHL DUP2 MSTORE ADDRESS PUSH1 0x4 DUP3 ADD MSTORE PUSH1 0x0 SWAP1 PUSH1 0x1 PUSH1 0x1 PUSH1 0xA0 SHL SUB DUP6 AND SWAP1 PUSH4 0x70A08231 SWAP1 PUSH1 0x24 ADD PUSH1 0x20 PUSH1 0x40 MLOAD DUP1 DUP4 SUB DUP2 DUP7 GAS STATICCALL ISZERO DUP1 ISZERO PUSH2 0xFDB JUMPI RETURNDATASIZE PUSH1 0x0 DUP1 RETURNDATACOPY RETURNDATASIZE PUSH1 0x0 REVERT JUMPDEST POP POP POP POP PUSH1 0x40 MLOAD RETURNDATASIZE PUSH1 0x1F NOT PUSH1 0x1F DUP3 ADD AND DUP3 ADD DUP1 PUSH1 0x40 MSTORE POP DUP2 ADD SWAP1 PUSH2 0xFFF SWAP2 SWAP1 PUSH2 0x1839 JUMP JUMPDEST SWAP1 POP PUSH1 0x0 DUP2 DUP4 GT PUSH2 0x1010 JUMPI DUP3 PUSH2 0x1012 JUMP JUMPDEST DUP2 JUMPDEST SWAP1 POP PUSH2 0x1028 PUSH1 0x1 PUSH1 0x1 PUSH1 0xA0 SHL SUB DUP7 AND DUP6 DUP4 PUSH2 0x1430 JUMP JUMPDEST DUP4 PUSH1 0x1 PUSH1 0x1 PUSH1 0xA0 SHL SUB AND DUP6 PUSH1 0x1 PUSH1 0x1 PUSH1 0xA0 SHL SUB AND PUSH32 0xF24EF89F38EADC1BDE50701AD6E4D6D11A2DC24F7CF834A486991F3883328504 DUP4 PUSH1 0x40 MLOAD PUSH2 0x106D SWAP2 DUP2 MSTORE PUSH1 0x20 ADD SWAP1 JUMP JUMPDEST PUSH1 0x40 MLOAD DUP1 SWAP2 SUB SWAP1 LOG3 POP POP POP POP POP JUMP JUMPDEST PUSH2 0x1084 PUSH2 0x130F JUMP JUMPDEST PUSH1 0x1 DUP1 SLOAD PUSH1 0x1 PUSH1 0x1 PUSH1 0xA0 SHL SUB DUP4 AND PUSH1 0x1 PUSH1 0x1 PUSH1 0xA0 SHL SUB NOT SWAP1 SWAP2 AND DUP2 OR SWAP1 SWAP2 SSTORE PUSH2 0x10B5 PUSH1 0x0 SLOAD PUSH1 0x1 PUSH1 0x1 PUSH1 0xA0 SHL SUB AND SWAP1 JUMP JUMPDEST PUSH1 0x1 PUSH1 0x1 PUSH1 0xA0 SHL SUB AND PUSH32 0x38D16B8CAC22D99FC7C124B9CD0DE2D3FA1FAEF420BFE791D8C362D765E22700 PUSH1 0x40 MLOAD PUSH1 0x40 MLOAD DUP1 SWAP2 SUB SWAP1 LOG3 POP JUMP JUMPDEST PUSH2 0x10F5 PUSH2 0x130F JUMP JUMPDEST DUP3 DUP2 EQ PUSH2 0x1118 JUMPI PUSH1 0x40 MLOAD PUSH1 0x1 PUSH3 0x1398B9 PUSH1 0xE3 SHL SUB NOT DUP2 MSTORE PUSH1 0x4 ADD PUSH1 0x40 MLOAD DUP1 SWAP2 SUB SWAP1 REVERT JUMPDEST PUSH1 0x0 JUMPDEST DUP4 DUP2 LT ISZERO PUSH2 0x1308 JUMPI PUSH2 0x3E8 DUP4 DUP4 DUP4 DUP2 DUP2 LT PUSH2 0x1138 JUMPI PUSH2 0x1138 PUSH2 0x17DD JUMP JUMPDEST SWAP1 POP PUSH1 0x20 MUL ADD CALLDATALOAD GT ISZERO PUSH2 0x115E JUMPI PUSH1 0x40 MLOAD PUSH4 0xCD4E6167 PUSH1 0xE0 SHL DUP2 MSTORE PUSH1 0x4 ADD PUSH1 0x40 MLOAD DUP1 SWAP2 SUB SWAP1 REVERT JUMPDEST PUSH1 0x0 PUSH1 0x4 PUSH1 0x0 DUP8 DUP8 DUP6 DUP2 DUP2 LT PUSH2 0x1176 JUMPI PUSH2 0x1176 PUSH2 0x17DD JUMP JUMPDEST SWAP1 POP PUSH1 0x20 MUL ADD PUSH1 0x20 DUP2 ADD SWAP1 PUSH2 0x118B SWAP2 SWAP1 PUSH2 0x1587 JUMP JUMPDEST PUSH1 0x1 PUSH1 0x1 PUSH1 0xA0 SHL SUB AND PUSH1 0x1 PUSH1 0x1 PUSH1 0xA0 SHL SUB AND DUP2 MSTORE PUSH1 0x20 ADD SWAP1 DUP2 MSTORE PUSH1 0x20 ADD PUSH1 0x0 KECCAK256 SLOAD SWAP1 POP DUP4 DUP4 DUP4 DUP2 DUP2 LT PUSH2 0x11C0 JUMPI PUSH2 0x11C0 PUSH2 0x17DD JUMP JUMPDEST SWAP1 POP PUSH1 0x20 MUL ADD CALLDATALOAD PUSH1 0x4 PUSH1 0x0 DUP9 DUP9 DUP7 DUP2 DUP2 LT PUSH2 0x11DD JUMPI PUSH2 0x11DD PUSH2 0x17DD JUMP JUMPDEST SWAP1 POP PUSH1 0x20 MUL ADD PUSH1 0x20 DUP2 ADD SWAP1 PUSH2 0x11F2 SWAP2 SWAP1 PUSH2 0x1587 JUMP JUMPDEST PUSH1 0x1 PUSH1 0x1 PUSH1 0xA0 SHL SUB AND PUSH1 0x1 PUSH1 0x1 PUSH1 0xA0 SHL SUB AND DUP2 MSTORE PUSH1 0x20 ADD SWAP1 DUP2 MSTORE PUSH1 0x20 ADD PUSH1 0x0 KECCAK256 DUP2 SWAP1 SSTORE POP PUSH1 0x1 PUSH1 0x5 PUSH1 0x0 DUP9 DUP9 DUP7 DUP2 DUP2 LT PUSH2 0x122E JUMPI PUSH2 0x122E PUSH2 0x17DD JUMP JUMPDEST SWAP1 POP PUSH1 0x20 MUL ADD PUSH1 0x20 DUP2 ADD SWAP1 PUSH2 0x1243 SWAP2 SWAP1 PUSH2 0x1587 JUMP JUMPDEST PUSH1 0x1 PUSH1 0x1 PUSH1 0xA0 SHL SUB AND DUP2 MSTORE PUSH1 0x20 DUP2 ADD SWAP2 SWAP1 SWAP2 MSTORE PUSH1 0x40 ADD PUSH1 0x0 KECCAK256 DUP1 SLOAD PUSH1 0xFF NOT AND SWAP2 ISZERO ISZERO SWAP2 SWAP1 SWAP2 OR SWAP1 SSTORE DUP6 DUP6 DUP4 DUP2 DUP2 LT PUSH2 0x127D JUMPI PUSH2 0x127D PUSH2 0x17DD JUMP JUMPDEST SWAP1 POP PUSH1 0x20 MUL ADD PUSH1 0x20 DUP2 ADD SWAP1 PUSH2 0x1292 SWAP2 SWAP1 PUSH2 0x1587 JUMP JUMPDEST PUSH1 0x1 PUSH1 0x1 PUSH1 0xA0 SHL SUB AND PUSH32 0x5FE83DA06836532AA42F928FE690751E055C28DAFB29FD9081EDBB43C931E8CD DUP3 DUP7 DUP7 DUP7 DUP2 DUP2 LT PUSH2 0x12CF JUMPI PUSH2 0x12CF PUSH2 0x17DD JUMP JUMPDEST SWAP1 POP PUSH1 0x20 MUL ADD CALLDATALOAD PUSH1 0x40 MLOAD PUSH2 0x12ED SWAP3 SWAP2 SWAP1 SWAP2 DUP3 MSTORE PUSH1 0x20 DUP3 ADD MSTORE PUSH1 0x40 ADD SWAP1 JUMP JUMPDEST PUSH1 0x40 MLOAD DUP1 SWAP2 SUB SWAP1 LOG2 POP DUP1 PUSH2 0x1300 DUP2 PUSH2 0x1809 JUMP JUMPDEST SWAP2 POP POP PUSH2 0x111B JUMP JUMPDEST POP POP POP POP POP JUMP JUMPDEST PUSH1 0x0 SLOAD PUSH1 0x1 PUSH1 0x1 PUSH1 0xA0 SHL SUB AND CALLER EQ PUSH2 0x65A JUMPI PUSH1 0x40 MLOAD PUSH4 0x118CDAA7 PUSH1 0xE0 SHL DUP2 MSTORE CALLER PUSH1 0x4 DUP3 ADD MSTORE PUSH1 0x24 ADD PUSH2 0x7DB JUMP JUMPDEST PUSH2 0x1344 PUSH2 0x1487 JUMP JUMPDEST PUSH1 0x3 DUP1 SLOAD PUSH1 0xFF NOT AND SWAP1 SSTORE PUSH32 0x5DB9EE0A495BF2E6FF9C91A7834C1BA4FDD244A5E8AA4E537BD38AEAE4B073AA CALLER JUMPDEST PUSH1 0x40 MLOAD PUSH1 0x1 PUSH1 0x1 PUSH1 0xA0 SHL SUB SWAP1 SWAP2 AND DUP2 MSTORE PUSH1 0x20 ADD PUSH1 0x40 MLOAD DUP1 SWAP2 SUB SWAP1 LOG1 JUMP JUMPDEST PUSH1 0x1 DUP1 SLOAD PUSH1 0x1 PUSH1 0x1 PUSH1 0xA0 SHL SUB NOT AND SWAP1 SSTORE PUSH2 0x7ED DUP2 PUSH2 0x14AA JUMP JUMPDEST PUSH2 0x13AF PUSH2 0x140C JUMP JUMPDEST PUSH1 0x3 DUP1 SLOAD PUSH1 0xFF NOT AND PUSH1 0x1 OR SWAP1 SSTORE PUSH32 0x62E78CEA01BEE320CD4E420270B5EA74000D11B0C9F74754EBDBFC544B05A258 PUSH2 0x1371 CALLER SWAP1 JUMP JUMPDEST PUSH1 0x2 DUP1 SLOAD SUB PUSH2 0x1406 JUMPI PUSH1 0x40 MLOAD PUSH4 0x3EE5AEB5 PUSH1 0xE0 SHL DUP2 MSTORE PUSH1 0x4 ADD PUSH1 0x40 MLOAD DUP1 SWAP2 SUB SWAP1 REVERT JUMPDEST PUSH1 0x2 DUP1 SSTORE JUMP JUMPDEST PUSH1 0x3 SLOAD PUSH1 0xFF AND ISZERO PUSH2 0x65A JUMPI PUSH1 0x40 MLOAD PUSH4 0xD93C0665 PUSH1 0xE0 SHL DUP2 MSTORE PUSH1 0x4 ADD PUSH1 0x40 MLOAD DUP1 SWAP2 SUB SWAP1 REVERT JUMPDEST PUSH1 0x40 DUP1 MLOAD PUSH1 0x1 PUSH1 0x1 PUSH1 0xA0 SHL SUB DUP5 AND PUSH1 0x24 DUP3 ADD MSTORE PUSH1 0x44 DUP1 DUP3 ADD DUP5 SWAP1 MSTORE DUP3 MLOAD DUP1 DUP4 SUB SWAP1 SWAP2 ADD DUP2 MSTORE PUSH1 0x64 SWAP1 SWAP2 ADD SWAP1 SWAP2 MSTORE PUSH1 0x20 DUP2 ADD DUP1 MLOAD PUSH1 0x1 PUSH1 0x1 PUSH1 0xE0 SHL SUB AND PUSH4 0xA9059CBB PUSH1 0xE0 SHL OR SWAP1 MSTORE PUSH2 0x1482 SWAP1 DUP5 SWAP1 PUSH2 0x14FA JUMP JUMPDEST POP POP POP JUMP JUMPDEST PUSH1 0x3 SLOAD PUSH1 0xFF AND PUSH2 0x65A JUMPI PUSH1 0x40 MLOAD PUSH4 0x8DFC202B PUSH1 0xE0 SHL DUP2 MSTORE PUSH1 0x4 ADD PUSH1 0x40 MLOAD DUP1 SWAP2 SUB SWAP1 REVERT JUMPDEST PUSH1 0x0 DUP1 SLOAD PUSH1 0x1 PUSH1 0x1 PUSH1 0xA0 SHL SUB DUP4 DUP2 AND PUSH1 0x1 PUSH1 0x1 PUSH1 0xA0 SHL SUB NOT DUP4 AND DUP2 OR DUP5 SSTORE PUSH1 0x40 MLOAD SWAP2 SWAP1 SWAP3 AND SWAP3 DUP4 SWAP2 PUSH32 0x8BE0079C531659141344CD1FD0A4F28419497F9722A3DAAFE3B4186F6B6457E0 SWAP2 SWAP1 LOG3 POP POP JUMP JUMPDEST PUSH1 0x0 DUP1 PUSH1 0x20 PUSH1 0x0 DUP5 MLOAD PUSH1 0x20 DUP7 ADD PUSH1 0x0 DUP9 GAS CALL DUP1 PUSH2 0x151D JUMPI PUSH1 0x40 MLOAD RETURNDATASIZE PUSH1 0x0 DUP3 RETURNDATACOPY RETURNDATASIZE DUP2 REVERT JUMPDEST POP POP PUSH1 0x0 MLOAD RETURNDATASIZE SWAP2 POP DUP2 ISZERO PUSH2 0x1535 JUMPI DUP1 PUSH1 0x1 EQ ISZERO PUSH2 0x1542 JUMP JUMPDEST PUSH1 0x1 PUSH1 0x1 PUSH1 0xA0 SHL SUB DUP5 AND EXTCODESIZE ISZERO JUMPDEST ISZERO PUSH2 0x78F JUMPI PUSH1 0x40 MLOAD PUSH4 0x5274AFE7 PUSH1 0xE0 SHL DUP2 MSTORE PUSH1 0x1 PUSH1 0x1 PUSH1 0xA0 SHL SUB DUP6 AND PUSH1 0x4 DUP3 ADD MSTORE PUSH1 0x24 ADD PUSH2 0x7DB JUMP JUMPDEST DUP1 CALLDATALOAD PUSH1 0x1 PUSH1 0x1 PUSH1 0xA0 SHL SUB DUP2 AND DUP2 EQ PUSH2 0x1582 JUMPI PUSH1 0x0 DUP1 REVERT JUMPDEST SWAP2 SWAP1 POP JUMP JUMPDEST PUSH1 0x0 PUSH1 0x20 DUP3 DUP5 SUB SLT ISZERO PUSH2 0x1599 JUMPI PUSH1 0x0 DUP1 REVERT JUMPDEST PUSH2 0x15A2 DUP3 PUSH2 0x156B JUMP JUMPDEST SWAP4 SWAP3 POP POP POP JUMP JUMPDEST DUP1 CALLDATALOAD DUP1 ISZERO ISZERO DUP2 EQ PUSH2 0x1582 JUMPI PUSH1 0x0 DUP1 REVERT JUMPDEST PUSH1 0x0 DUP1 PUSH1 0x40 DUP4 DUP6 SUB SLT ISZERO PUSH2 0x15CC JUMPI PUSH1 0x0 DUP1 REVERT JUMPDEST PUSH2 0x15D5 DUP4 PUSH2 0x156B JUMP JUMPDEST SWAP2 POP PUSH2 0x15E3 PUSH1 0x20 DUP5 ADD PUSH2 0x15A9 JUMP JUMPDEST SWAP1 POP SWAP3 POP SWAP3 SWAP1 POP JUMP JUMPDEST PUSH1 0x0 PUSH1 0x20 DUP3 DUP5 SUB SLT ISZERO PUSH2 0x15FE JUMPI PUSH1 0x0 DUP1 REVERT JUMPDEST PUSH2 0x15A2 DUP3 PUSH2 0x15A9 JUMP JUMPDEST PUSH1 0x0 DUP1 DUP4 PUSH1 0x1F DUP5 ADD SLT PUSH2 0x1619 JUMPI PUSH1 0x0 DUP1 REVERT JUMPDEST POP DUP2 CALLDATALOAD PUSH8 0xFFFFFFFFFFFFFFFF DUP2 GT ISZERO PUSH2 0x1631 JUMPI PUSH1 0x0 DUP1 REVERT JUMPDEST PUSH1 0x20 DUP4 ADD SWAP2 POP DUP4 PUSH1 0x20 DUP3 PUSH1 0x5 SHL DUP6 ADD ADD GT ISZERO PUSH2 0x164C JUMPI PUSH1 0x0 DUP1 REVERT JUMPDEST SWAP3 POP SWAP3 SWAP1 POP JUMP JUMPDEST PUSH1 0x0 DUP1 PUSH1 0x0 PUSH1 0x40 DUP5 DUP7 SUB SLT ISZERO PUSH2 0x1668 JUMPI PUSH1 0x0 DUP1 REVERT JUMPDEST DUP4 CALLDATALOAD PUSH8 0xFFFFFFFFFFFFFFFF DUP2 GT ISZERO PUSH2 0x167F JUMPI PUSH1 0x0 DUP1 REVERT JUMPDEST PUSH2 0x168B DUP7 DUP3 DUP8 ADD PUSH2 0x1607 JUMP JUMPDEST SWAP1 SWAP5 POP SWAP3 POP PUSH2 0x169E SWAP1 POP PUSH1 0x20 DUP6 ADD PUSH2 0x15A9 JUMP JUMPDEST SWAP1 POP SWAP3 POP SWAP3 POP SWAP3 JUMP JUMPDEST PUSH1 0x0 DUP1 PUSH1 0x0 DUP1 PUSH1 0x80 DUP6 DUP8 SUB SLT ISZERO PUSH2 0x16BD JUMPI PUSH1 0x0 DUP1 REVERT JUMPDEST PUSH2 0x16C6 DUP6 PUSH2 0x156B JUMP JUMPDEST SWAP4 POP PUSH2 0x16D4 PUSH1 0x20 DUP7 ADD PUSH2 0x156B JUMP JUMPDEST SWAP3 POP PUSH2 0x16E2 PUSH1 0x40 DUP7 ADD PUSH2 0x156B JUMP JUMPDEST SWAP4 SWAP7 SWAP3 SWAP6 POP SWAP3 SWAP4 PUSH1 0x60 ADD CALLDATALOAD SWAP3 POP POP JUMP JUMPDEST PUSH1 0x0 DUP1 PUSH1 0x40 DUP4 DUP6 SUB SLT ISZERO PUSH2 0x1705 JUMPI PUSH1 0x0 DUP1 REVERT JUMPDEST PUSH2 0x170E DUP4 PUSH2 0x156B JUMP JUMPDEST SWAP5 PUSH1 0x20 SWAP4 SWAP1 SWAP4 ADD CALLDATALOAD SWAP4 POP POP POP JUMP JUMPDEST PUSH1 0x0 PUSH1 0x20 DUP3 DUP5 SUB SLT ISZERO PUSH2 0x172E JUMPI PUSH1 0x0 DUP1 REVERT JUMPDEST POP CALLDATALOAD SWAP2 SWAP1 POP JUMP JUMPDEST PUSH1 0x0 DUP1 PUSH1 0x0 PUSH1 0x60 DUP5 DUP7 SUB SLT ISZERO PUSH2 0x174A JUMPI PUSH1 0x0 DUP1 REVERT JUMPDEST PUSH2 0x1753 DUP5 PUSH2 0x156B JUMP JUMPDEST SWAP3 POP PUSH2 0x1761 PUSH1 0x20 DUP6 ADD PUSH2 0x156B JUMP JUMPDEST SWAP2 POP PUSH1 0x40 DUP5 ADD CALLDATALOAD SWAP1 POP SWAP3 POP SWAP3 POP SWAP3 JUMP JUMPDEST PUSH1 0x0 DUP1 PUSH1 0x0 DUP1 PUSH1 0x40 DUP6 DUP8 SUB SLT ISZERO PUSH2 0x1787 JUMPI PUSH1 0x0 DUP1 REVERT JUMPDEST DUP5 CALLDATALOAD PUSH8 0xFFFFFFFFFFFFFFFF DUP1 DUP3 GT ISZERO PUSH2 0x179F JUMPI PUSH1 0x0 DUP1 REVERT JUMPDEST PUSH2 0x17AB DUP9 DUP4 DUP10 ADD PUSH2 0x1607 JUMP JUMPDEST SWAP1 SWAP7 POP SWAP5 POP PUSH1 0x20 DUP8 ADD CALLDATALOAD SWAP2 POP DUP1 DUP3 GT ISZERO PUSH2 0x17C4 JUMPI PUSH1 0x0 DUP1 REVERT JUMPDEST POP PUSH2 0x17D1 DUP8 DUP3 DUP9 ADD PUSH2 0x1607 JUMP JUMPDEST SWAP6 SWAP9 SWAP5 SWAP8 POP SWAP6 POP POP POP POP JUMP JUMPDEST PUSH4 0x4E487B71 PUSH1 0xE0 SHL PUSH1 0x0 MSTORE PUSH1 0x32 PUSH1 0x4 MSTORE PUSH1 0x24 PUSH1 0x0 REVERT JUMPDEST PUSH4 0x4E487B71 PUSH1 0xE0 SHL PUSH1 0x0 MSTORE PUSH1 0x11 PUSH1 0x4 MSTORE PUSH1 0x24 PUSH1 0x0 REVERT JUMPDEST PUSH1 0x0 PUSH1 0x1 DUP3 ADD PUSH2 0x181B JUMPI PUSH2 0x181B PUSH2 0x17F3 JUMP JUMPDEST POP PUSH1 0x1 ADD SWAP1 JUMP JUMPDEST PUSH1 0x0 DUP2 PUSH2 0x1831 JUMPI PUSH2 0x1831 PUSH2 0x17F3 JUMP JUMPDEST POP PUSH1 0x0 NOT ADD SWAP1 JUMP JUMPDEST PUSH1 0x0 PUSH1 0x20 DUP3 DUP5 SUB SLT ISZERO PUSH2 0x184B JUMPI PUSH1 0x0 DUP1 REVERT JUMPDEST POP MLOAD SWAP2 SWAP1 POP JUMP JUMPDEST DUP1 DUP3 MUL DUP2 ISZERO DUP3 DUP3 DIV DUP5 EQ OR PUSH2 0x1869 JUMPI PUSH2 0x1869 PUSH2 0x17F3 JUMP JUMPDEST SWAP3 SWAP2 POP POP JUMP JUMPDEST PUSH1 0x0 DUP3 PUSH2 0x188C JUMPI PUSH4 0x4E487B71 PUSH1 0xE0 SHL PUSH1 0x0 MSTORE PUSH1 0x12 PUSH1 0x4 MSTORE PUSH1 0x24 PUSH1 0x0 REVERT JUMPDEST POP DIV SWAP1 JUMP JUMPDEST DUP2 DUP2 SUB DUP2 DUP2 GT ISZERO PUSH2 0x1869 JUMPI PUSH2 0x1869 PUSH2 0x17F3 JUMP JUMPDEST DUP1 DUP3 ADD DUP1 DUP3 GT ISZERO PUSH2 0x1869 JUMPI PUSH2 0x1869 PUSH2 0x17F3 JUMP INVALID LOG2 PUSH5 0x6970667358 0x22 SLT KECCAK256 SWAP5 LOG1 SWAP4 SWAP13 0x24 PUSH25 0x744E48DA1D5508E3F0A238291D901603BA1C0D1C0C00A1499E 0xB7 PUSH5 0x736F6C6343 STOP ADDMOD EQ STOP CALLER "},"methodIdentifiers":{"MAX_FEE_BPS()":"d55be8c6","MIN_AMOUNT()":"ddbcb5fa","acceptOwnership()":"79ba5097","authorizedFacilitators(address)":"c57beae4","calculateSplit(address,uint256)":"df15f1ac","collectedFees(address)":"1cead9a7","defaultFeeBps()":"bcae25a4","emergencyWithdraw(address,uint256)":"95ccea67","emergencyWithdrawTo(address,address,uint256)":"f2f7c06a","facilitatorCount()":"888a42d3","getStats()":"c59d4847","getTokenFee(address)":"252154fa","getTokenStats(address)":"ca88d5c5","isFacilitator(address)":"33460540","owner()":"8da5cb5b","pause()":"8456cb59","paused()":"5c975abb","pendingOwner()":"e30c3978","renounceOwnership()":"715018a6","setDefaultFee(uint256)":"c93a6c84","setFacilitator(address,bool)":"8f57e97d","setTokenFee(address,uint256)":"b1014cbb","setTokenFeesBatch(address[],uint256[])":"f3abba10","setTokenWhitelisted(address,bool)":"3a9c5712","setTokensWhitelistedBatch(address[],bool)":"5e3b973e","setTreasury(address)":"f0f44260","setWhitelistMode(bool)":"425bc1e9","splitPayment(address,address,address,uint256)":"94cc6d72","tokenConfigured(address)":"80fc2e15","tokenFeeBps(address)":"79f6351b","tokenWhitelisted(address)":"ff8507e8","totalSettlements()":"88dae6a8","totalVolumeByToken(address)":"38caed9f","transferOwnership(address)":"f2fde38b","treasury()":"61d027b3","unpause()":"3f4ba83a","whitelistMode()":"70c757ec"}}}}}